:020000040800F2
:1000000000000120554E00083D4C0008494C0008F6
:100010004F4C0008554C00085B4C000800000000E5
:10002000000000000000000000000000614C00081B
:100030006D4C000800000000794C0008854C000859
:100040009D4E00089D4E00089D4E00089D4E0008E4
:100050009D4E00089D4E00089D4E00089D4E0008D4
:100060009D4E00089D4E00089D4E00089D4E0008C4
:100070009D4E00089D4E00089D4E00089D4E0008B4
:100080009D4E00089D4E00089D4E00089D4E0008A4
:100090009D4E00089D4E00089D4E00089D4E000894
:1000A0009D4E00089D4E00089D4E00089D4E000884
:1000B0009D4E00089D4E00089D4E00089D4E000874
:1000C0009D4E00089D4E00089D4E00089D4E000864
:1000D0009D4E00089D4E00089D4E00089D4E000854
:1000E0009D4E00089D4E00089D4E00089D4E000844
:1000F0009D4E00089D4E00089D4E00089D4E000834
:100100009D4E00089D4E00089D4E00089D4E000823
:100110009D4E00089D4E00089D4E00089D4E000813
:100120009D4E00089D4E00089D4E00089D4E000803
:1001300000000000000000000000000000000000BF
:1001400000000000000000000000000000000000AF
:10015000000000000000000000000000000000009F
:10016000000000000000000000000000000000008F
:10017000000000000000000000000000000000007F
:10018000000000000000000000000000000000006F
:10019000000000000000000000000000000000005F
:1001A000000000000000000000000000000000004F
:1001B000000000000000000000000000000000003F
:1001C000000000000000000000000000000000002F
:1001D000000000000000000000000000000000001F
:0401E0005FF8E0F1F3
:1001E80010B5054C237833B9044B13B10448AFF369
:1001F80000800123237010BDFC06002000000000D1
:100208000C8B000808B5034B1BB103490348AFF337
:10021800008008BD00000000000700200C8B0008CB
:10022800034613F8012B002AFBD1181A013870472E
:1002380081F0004102E000BF83F0004330B54FEA8F
:1002480041044FEA430594EA050F08BF90EA020FFC
:100258001FBF54EA000C55EA020C7FEA645C7FEA8F
:10026800655C00F0E2804FEA5454D4EB5555B8BFB2
:100278006D420CDD2C4480EA020281EA030382EA23
:10028800000083EA010180EA020281EA0303362DB5
:1002980088BF30BD11F0004F4FEA01314FF4801C88
:1002A8004CEA113102D0404261EB410113F0004F9A
:1002B8004FEA03334CEA133302D0524263EB430351
:1002C80094EA050F00F0A780A4F10104D5F1200EEF
:1002D8000DDB02FA0EFC22FA05F2801841F100014A
:1002E80003FA0EF2801843FA05F359410EE0A5F11E
:1002F80020050EF1200E012A03FA0EFC28BF4CF04F
:10030800020C43FA05F3C01851EBE37101F0004504
:1003180007D54FF0000EDCF1000C7EEB00006EEB11
:100328000101B1F5801F1BD3B1F5001F0CD349089B
:100338005FEA30004FEA3C0C04F101044FEA4452F2
:1003480012F5800F80F09A80BCF1004F08BF5FEA79
:10035800500C50F1000041EB045141EA050130BD59
:100368005FEA4C0C404141EB010111F4801FA4F1FC
:100378000104E9D191F0000F04BF01460020B1FA51
:1003880081F308BF2033A3F10B03B3F120020CDA89
:100398000C3208DD02F1140CC2F10C0201FA0CF067
:1003A80021FA02F10CE002F11402D8BFC2F1200CCC
:1003B80001FA02F120FA0CFCDCBF41EA0C01904082
:1003C800E41AA2BF01EB0451294330BD6FEA0404CB
:1003D8001F3C1CDA0C340EDC04F11404C4F12002B6
:1003E80020FA04F001FA02F340EA030021FA04F3C8
:1003F80045EA030130BDC4F10C04C4F1200220FA1F
:1004080002F001FA04F340EA0300294630BD21FA5C
:1004180004F0294630BD94F0000F83F4801306BF22
:1004280081F480110134013D4EE77FEA645C18BF16
:100438007FEA655C29D094EA050F08BF90EA020FAD
:1004480005D054EA000C04BF1946104630BD91EAA5
:10045800030F1EBF0021002030BD5FEA545C05D1A8
:100468004000494128BF41F0004130BD14F58004E7
:100478003CBF01F5801130BD01F0004545F0FE415B
:1004880041F470014FF0000030BD7FEA645C1ABF90
:10049800194610467FEA655C1CBF0B46024650EAC7
:1004A800013406BF52EA033591EA030F41F40021F3
:1004B80030BD00BF90F0000F04BF0021704730B579
:1004C8004FF4806404F132044FF000054FF000014E
:1004D80050E700BF90F0000F04BF0021704730B50F
:1004E8004FF4806404F1320410F0004548BF4042E4
:1004F8004FF000013EE700BF42004FEAE2014FEA39
:1005080031014FEA02701FBF12F07F4393F07F4F13
:1005180081F06051704792F0000F14BF93F07F4F45
:10052800704730B54FF4607401F0004521F0004188
:1005380020E700BF50EA010208BF704730B54FF00E
:1005480000050AE050EA010208BF704730B511F013
:10055800004502D5404261EB41014FF4806404F14B
:1005680032045FEA915C3FF4DCAE4FF003025FEACD
:10057800DC0C18BF03325FEADC0C18BF033202EB55
:10058800DC02C2F1200300FA03FC20FA02F001FAAF
:1005980003FE40EA0E0021FA02F11444C1E600BF4E
:1005A80070B54FF0FF0C4CF4E06C1CEA11541DBF01
:1005B8001CEA135594EA0C0F95EA0C0F00F0DEF8CC
:1005C8002C4481EA030621EA4C5123EA4C5350EAB1
:1005D800013518BF52EA033541F4801143F4801302
:1005E80038D0A0FB02CE4FF00005E1FB02E506F093
:1005F8000042E0FB03E54FF00006E1FB03569CF0E8
:10060800000F18BF4EF0010EA4F1FF04B6F5007FED
:1006180064F5407404D25FEA4E0E6D4146EB06065F
:1006280042EAC62141EA55514FEAC52040EA5E50E8
:100638004FEACE2EB4F1FD0C88BFBCF5E06F1ED892
:10064800BEF1004F08BF5FEA500E50F1000041EBC9
:10065800045170BD06F0004646EA010140EA020076
:1006680081EA0301B4EB5C04C2BFD4EB0C0541EA98
:10067800045170BD41F480114FF0000E013C00F3AD
:10068800AB8014F1360FDEBF002001F0004170BDD1
:10069800C4F10004203C35DA0C341BDC04F11404EA
:1006A800C4F1200500FA05F320FA04F001FA05F276
:1006B80040EA020001F0004221F0004110EBD37043
:1006C80021FA04F642EB06015EEA430E08BF20EA6F
:1006D800D37070BDC4F10C04C4F1200500FA04F312
:1006E80020FA05F001FA04F240EA020001F00041A4
:1006F80010EBD37041F100015EEA430E08BF20EA17
:10070800D37070BDC4F1200500FA05F24EEA020E5E
:1007180020FA04F301FA05F243EA020321FA04F08D
:1007280001F0004121FA04F220EA020000EBD37044
:100738005EEA430E08BF20EAD37070BD94F0000F44
:100748000FD101F00046400041EB010111F4801F78
:1007580008BF013CF7D041EA060195F0000F18BF29
:10076800704703F00046520043EB030313F4801F65
:1007780008BF013DF7D043EA0603704794EA0C0F1F
:100788000CEA135518BF95EA0C0F0CD050EA410635
:1007980018BF52EA4306D1D181EA030101F00041B2
:1007A8004FF0000070BD50EA410606BF10461946DA
:1007B80052EA430619D094EA0C0F02D150EA0136E6
:1007C80013D195EA0C0F05D152EA03361CBF104627
:1007D80019460AD181EA030101F0004141F0FE41C6
:1007E80041F470014FF0000070BD41F0FE4141F44A
:1007F800780170BD70B54FF0FF0C4CF4E06C1CEA4A
:1008080011541DBF1CEA135594EA0C0F95EA0C0FFE
:1008180000F0A7F8A4EB050481EA030E52EA0335B9
:100828004FEA013100F088804FEA03334FF08055DA
:1008380045EA131343EA12634FEA022245EA111507
:1008480045EA10654FEA00260EF000419D4208BFB8
:10085800964244F1FD0404F5407402D25B084FEA65
:100868003202B61A65EB03055B084FEA32024FF411
:1008780080104FF4002CB6EB020E75EB030E22BF6E
:10088800B61A754640EA0C005B084FEA3202B6EB2E
:10089800020E75EB030E22BFB61A754640EA5C00DD
:1008A8005B084FEA3202B6EB020E75EB030E22BF6D
:1008B800B61A754640EA9C005B084FEA3202B6EB6E
:1008C800020E75EB030E22BFB61A754640EADC002D
:1008D80055EA060E18D04FEA051545EA16754FEA8F
:1008E80006164FEAC30343EA52734FEAC2025FEAAD
:1008F8001C1CC0D111F4801F0BD141EA00014FF03C
:1009080000004FF0004CB6E711F4801F04BF01430C
:100918000020B4F1FD0C88BFBCF5E06F3FF6AFAE28
:10092800B5EB030C04BFB6EB020C5FEA500C50F1B8
:10093800000041EB045170BD0EF0004E4EEA11313B
:1009480014EB5C04C2BFD4EB0C0541EA045170BD42
:1009580041F480114FF0000E013C90E645EA060E86
:100968008DE60CEA135594EA0C0F08BF95EA0C0FB4
:100978003FF43BAF94EA0C0F0AD150EA01347FF4FC
:1009880034AF95EA0C0F7FF425AF104619462CE7D3
:1009980095EA0C0F06D152EA03353FF4FDAE104636
:1009A800194622E750EA410618BF52EA43067FF487
:1009B800C5AE50EA41047FF40DAF52EA43057FF417
:1009C800EBAE12E74FF0FF3C06E000BF4FF0010C22
:1009D80002E000BF4FF0010C4DF804CD4FEA410C86
:1009E8007FEA6C5C4FEA430C18BF7FEA6C5C1BD053
:1009F80001B050EA410C0CBF52EA430C91EA030FD4
:100A080002BF90EA020F0020704710F1000F91EA30
:100A1800030F58BF994208BF90422CBFD8176FEAFE
:100A2800E37040F0010070474FEA410C7FEA6C5CCC
:100A380002D150EA013C07D14FEA430C7FEA6C5CD3
:100A4800D6D152EA033CD3D05DF8040B704700BFFF
:100A58008446104662468C461946634600E000BF4D
:100A680001B5FFF7B7FF002848BF10F1000F01BD1F
:100A78004DF808EDFFF7F4FF0CBF012000205DF8EA
:100A880008FB00BF4DF808EDFFF7EAFF34BF01206F
:100A980000205DF808FB00BF4DF808EDFFF7E0FF08
:100AA80094BF012000205DF808FB00BF4DF808ED59
:100AB800FFF7CEFF94BF012000205DF808FB00BFC0
:100AC8004DF808EDFFF7C4FF34BF012000205DF8A2
:100AD80008FB00BF4FEA410C7FEA6C5C02D150EA88
:100AE800013C0AD14FEA430C7FEA6C5C02D152EA1E
:100AF800033C02D14FF0000070474FF001007047EF
:100B08004FEA410212F5001215D211D56FF478732D
:100B1800B3EB625212D94FEAC12343F0004343EAD0
:100B2800505311F0004F23FA02F018BF40427047AB
:100B38004FF00000704750EA013005D111F0004035
:100B480008BF6FF0004070474FF00000704700BFCB
:100B58004A0011D212F5001211D20DD56FF4787334
:100B6800B3EB62520ED44FEAC12343F0004343EA89
:100B7800505323FA02F070474FF00000704750EAD4
:100B8800013002D14FF0FF3070474FF0000070473E
:100B980053B94AB9002908BF00281CBF4FF0FF31DC
:100BA8004FF0FF3001F000B9ADF1080C6DE904CE4B
:100BB80000F006F8DDF804E0DDE9022304B0704730
:100BC8002DE9F0478C460E460446089D002B50D16F
:100BD8008A4217466CD9B2FA82FEBEF1000F0BD0DA
:100BE800CEF1200C01FA0EF620FA0CFC02FA0EF7F0
:100BF8004CEA060C00FA0EF43A0CBCFBF2F9BBB254
:100C080002FB19CC09FB03FA4FEA144848EA0C46E0
:100C1800B2450AD9F61909F1FF3180F02581B245AC
:100C280040F22281A9F102093E44A6EB0A06B6FB6E
:100C3800F2F002FB106600FB03F3A4B244EA064498
:100C4800A34209D9E41900F1FF3280F00B81A342D5
:100C580040F2088102383C440021E41A40EA094085
:100C6800002D62D0002324FA0EF42C606B60BDE8DE
:100C7800F0878B4207D9002D55D0002185E8410027
:100C88000846BDE8F087B3FA83F1002940F08F8069
:100C9800B34202D3824200F2FC80841A66EB030658
:100CA8000120B446002D40D085E81010BDE8F0873B
:100CB80012B90127B7FBF2F7B7FA87FEBEF1000FAA
:100CC80035D10121F61B4FEA174C1FFA87F8B6FBFE
:100CD800FCF20CFB126608FB02F0230C43EA064602
:100CE800B04207D9F61902F1FF3302D2B04200F23E
:100CF800D2801A46361AB6FBFCF00CFB106608FBCD
:100D080000F8A3B243EA0644A04507D9E41900F164
:100D1800FF3302D2A04500F2B9801846A4EB0804BC
:100D280040EA02409CE729462846BDE8F08707FAD2
:100D38000EF7CEF1200326FA03F24FEA174CB2FB66
:100D4800FCF11FFA87F80CFB112206FA0EF620FABE
:100D580003F301FB08F933431E0C46EA0246B1458A
:100D680000FA0EF409D9F61901F1FF3280F08C80EF
:100D7800B14540F2898002393E44A6EB0906B6FB2C
:100D8800FCF00CFB106200FB08F99EB246EA024632
:100D9800B14507D9F61900F1FF3371D2B1456FD9C2
:100DA80002383E44A6EB090640EA01418FE7C1F14B
:100DB800200722FA07F88B4048EA030326FA07F4CB
:100DC8004FEA134EB4FBFEF91FFA83FC0EFB1944DD
:100DD8008E4020FA07F809FB0CFA48EA06084FEAA1
:100DE800184646EA0444A24502FA01F200FA01F65E
:100DF80008D9E41809F1FF3044D2A24542D9A9F133
:100E080002091C44A4EB0A04B4FBFEF00EFB1044D8
:100E180000FB0CFC1FFA88F848EA0444A44507D9EB
:100E2800E41800F1FF3E29D2A44527D902381C4412
:100E380040EA0940A0FB0289A4EB0C0CCC45C24651
:100E4800CE4615D312D055B1B6EB0A036CEB0E069D
:100E580006FA07F7CB401F43CE402F606E60002193
:100E6800BDE8F0871046F7E68946DEE64645EAD251
:100E7800B8EB020A69EB030E0138E4E77046D7E7DE
:100E880018468FE78146BDE7114676E702383C44AD
:100E980044E7084606E7023A3E442BE703685A004F
:100EA8004CBF43F0004323F000431844704700BF91
:100EB80061B32DE9F84F01F1FF3A90460646D14655
:100EC800002707EB090404EBD4746410E5007119DA
:100ED8000846FFF7E3FFA245834605F108003044C2
:100EE80009D0FFF7DBFFC34500F1FF3005D84045C7
:100EF80009D2671CE5E7C34505D9A74202D004F12A
:100F0800FF39DEE700210846BDE8F88F084670473C
:100F1800012807D0022807D0044B00280CBF184628
:100F28000020704702487047024870472916000899
:100F38002D1600083116000830B5254B83B004463D
:100F48008D1E73B301A92846AFF3008018B3019929
:100F58002A46FFF7ADFF0146E8B1FFF79FFF4B6850
:100F6800A064012B11D0002B22DB081DFFF796FF90
:100F78000023E06423650368002B1EDBFFF78EFF68
:100F880000232061184603B030BD0523002218460F
:100F9800226103B030BD092300221846226103B044
:100FA80030BD0C4B0C491846C91AC9100191CFE73E
:100FB8000123081DE0642365DDE7C3F30360FFF741
:100FC800A7FF0028206114BF00230923DAE700BF28
:100FD800000000006C8F0008AC900008036810B592
:100FE800DA07044606D49B0700F1480009D500F04B
:100FF80057FC2368590709D51A070ED5DB0613D500
:1010080010BD00F045FC23685907F5D404F1D00061
:1010180000F04EFC23681A07F0D404F5A87000F01D
:101028004FFC2368DB06EBD404F5E870BDE81040FC
:1010380000F08ABC036803B103441846704700BF38
:1010480009207047704700BF70B504460D4608E098
:101058002A6C2369626121462A460120984708289C
:1010680008D1296C2046FFF767FF06460028EFD015
:1010780007F0FDFC0728FBD13046296CFFF7E2FF9B
:10108800281D00F0F9FB00BF2DE9F04705460027B1
:10109800ADF5727D03AC0E1D92460FCE0FC40FCE78
:1010A8000FC40FCE0FC496E80F00D5F80C80D5F802
:1010B800189084E80F0002AC2846216C2760FFF7DF
:1010C8003BFFBAF1000F074614BF0A2609267FB175
:1010D800A36B46F010018DE810022A4663640120D4
:1010E8002B46C04778BB38460DF5727DBDE8F087C2
:1010F800236C4FF4F0726B6121467AA803F0F6FE78
:101108002B697AAA294630469847889B82468DE8FB
:101118001002314663642A462B460120C04790B925
:101128004FF4F0727AA9204603F0E0FEBAF1080FF6
:1011380006D1216C2846FFF7FFFE09260746C6E7B9
:10114800BAF1070F05D0092738460DF5727DBDE8BD
:10115800F0873846216CFFF775FF03A800F08CFB79
:10116800406C7047F0B54FF0FF3ECB6BF9B00B64A5
:101178000E1D01AD0F4604460FCE0FC50FCE0FC58D
:101188000FCE0FC596E80F0085E80F00CDF800E0F8
:1011980006E023696A46214698470828054608D18B
:1011A80010992046FFF7C8FE0028F2D0092079B030
:1011B800F0BD6846FFF712FF062DF7D139462046E5
:1011C800FFF742FF30B4DD6BC160826119461D64D0
:1011D800002230BC58E700BF70B54369C6680B648D
:1011E80026B10122FFF750FF07F041FC03690A46C8
:1011F80004460D46014602209847072807D00828CC
:1012080003D129462046FFF71FFF07F030FC304680
:10121800296CFFF717FF281D00F02EFBC2682AB1C2
:1012280010B4CC6B00220C6410BC2DE79AE700BF09
:10123800704700BF836813B1014601201847704703
:1012480000B5042907D8DFE801F0030906090900F9
:101258000BB90F2A05D902205DF804FB01205DF8BF
:1012680004FB00EB820252681846019B1A605DF885
:1012780004FB00BF002310B584B003AC0A460094F9
:101288001946FFF7DDFF039804B010BD00B5042927
:1012980007D8DFE801F00309060909000BB90F2A8E
:1012A80005D902205DF804FB01205DF804FB0199D3
:1012B80000EB82020968184651605DF804FB00BF24
:1012C800002310B584B004AC44F8042D00940A46F9
:1012D8001946FFF7DBFF04B010BD00BFF0B54FF0B3
:1012E800FF3ED36BADF50F7D1364151D17AC074694
:1012F8000E460FCD0FC40FCD0FC40FCD0FC495E808
:101308000F0084E80F00CDF858E012E00C2116A871
:101318006A46FFF7D5FF314616A8B84778B9049B47
:1013280016AA6946082098470528044608D00928BF
:1013380005D026996846FFF7FFFD0028E6D0092466
:1013480016A8FFF74BFE20460DF50F7DF0BD00BF38
:101358002DE9F04FCC6C914622688BB004340D46D1
:101368000792089400F0030B1E46002B60D103235C
:10137800120207928DF825608DF824302B6DBBF191
:10138800020F08BFAC6B13F0010340D1019300F0CA
:1013980008030393D4F80080B8F1000F39D0022E67
:1013A80043D0B4F8008067880434AB6C27F0010A96
:1013B8000F2148469A44FFF75DFF824533D828F04D
:1013C80001039A4450452CBF002001207F0007F0FC
:1013D800020708F0010847EA0807012F3ED035D375
:1013E800022F1CD1236823F000420292BBF1000FA8
:1013F80076D128B1039900297ED0002A00F0A68072
:10140800002B77DB029B013304EB8304C2E7002344
:101418000193022E3EDDFFF713FE002840D009207D
:101428000BB0BDE8F08F0020D0E767680834BCE750
:10143800022BA3DC0221130C8DF825301204DBB239
:1014480004EB830407928DF8241097E7BBF1000F93
:1014580002D0002840F0BD8004349BE7BBF1000FA8
:1014680025D1A8B194E80C00991C4FEAD272D6D0C5
:1014780005F158010133069100F0A380201DFFF704
:10148800D9FD06AB01462846AFF30080002877D186
:1014980008347FE707A9484600F0F0FA0028BED1D3
:1014A800019B002B5CD108200BB0BDE8F08F0D210B
:1014B80048462F6AFFF7DEFE8742E9D1AB6A9C42B5
:1014C800E6D12046FFF7EAFC0F2102464846FFF71F
:1014D800F7FE48462A460021FFF7F2FE07209FE75D
:1014E8000D2148462F6AFFF7C5FE874258D023686A
:1014F800002B87DA043485E7029B3BB305F15803D8
:10150800271DCDF810B0DDF80C80A346DDF808A043
:101518001C46059602E0B245B04616D038460694F9
:10152800FFF788FD06AB014600222846AFF300808E
:1015380008F1010604370028EDD0029B5C464345BC
:10154800DDF810B0059ED2D100E05C4648460D217A
:10155800FFF790FE069B2862AC626B6206205FE78D
:101568000F214846FFF786FE0E2102464846FFF740
:10157800A7FE4846294A0F21FFF7A2FE07204FE79A
:1015880007460D214846FFF775FE022F28621DD138
:101598002B46069A43F82C2F6B62AC6206203FE775
:1015A800AB6A9C42A3D1042200270299A318A9621E
:1015B800EF622A636B632368BB421DDB012301933F
:1015C80020E748460D21FFF755FE2862069B6B620F
:1015D800E3E72046FFF762FC04340646AC6328467E
:1015E800AFF3008000283FF41AAF484632460F2177
:1015F800FFF766FE072013E70846013004EB80007A
:10160800FFF74CFC0F2102464846FFF759FE4846B3
:101618002A463946FFF754FE072001E7000000007C
:10162800002395E6012393E6022391E6F0B50446EC
:10163800C5B004290DD8DFE801F055030C310F00BF
:10164800012B4FEA124695B264D17219102A40F262
:101658009D80022045B0F0BD002BFAD1102AF8D8A1
:101668002368D80600F1C88022AE304601920125D1
:1016780000F074F90023A06B019A05FA03F11142F6
:1016880003D00168043046F823100133042BF4D149
:10169800A063304600F058F90020DBE7032BD8D1CF
:1016A800150C97B2EB19102BD3D823681E0700F13D
:1016B800B78022AE304600F025F9ED00A06B5FB18F
:1016C800043D0346711900EBC70053F8042B83420D
:1016D80041F8042FF9D11846A063304600F0F0F81D
:1016E8000020B7E7002BB4D10127A56B96B2201DC7
:1016F80007FA03F1314203F1010302D029680435E6
:101708000160102B00F10400F2D112F400503BD11B
:10171800A5639FE7052B9CD17719202F99D80F2E09
:1017280066D92F46002D3AD12A460027002AA06BF9
:1017380072DD00EBC202014644A800EBC6008C38FB
:1017480051F8045B914240F8045FF9D1084697B11B
:10175800102E324638BF102244A901EBC202A2F56E
:10176800C4727900043A00EB810150F8045B8842A6
:1017780042F8045FF9D1012B48D00F2EA16333D969
:1017880017B102A800F094F8002063E70F2E3FF687
:1017980060AF00272268D10717D4002F60D02268D5
:1017A800510745D4012B4DD00F2E06D822A80193FE
:1017B80000F07AF8019B002FB6D002A8019300F040
:1017C8007BF8019BC6F11002B0E722F00101052B5E
:1017D8002160019320463BD022F0030240F8482BB9
:1017E80000F05AF8019BD8E722A800F059F8C7E79B
:1017F800102FCED9103FCDE723F01003236004F556
:10180800E870019200F0AAF8019A2DE70431A1636B
:1018180022A800F03DF8B7E7002F99D10146AAE7C2
:1018280023F00803236004F5A87000F06BF840E784
:10183800204622F0040240F8D02B019300F03CF837
:10184800019BAFE722A8019300F026F8019BB9E7B6
:1018580041F0020140F8481B00F026F8019B9CE784
:10186800012B03D00F2E3FF65FAF9FE722A801930D
:1018780000F012F8019B57E700F1340191E83800B5
:101888009C46A6464CF8045D90E8FF0FE54600BD6F
:1018980090EC210B704700BF80EC210B704700BF14
:1018A80090EC200B704700BF80EC200B704700BF06
:1018B800D0EC200B704700BFC0EC200B704700BF76
:1018C800F0EC0201F0EC0211F0EC0221F0EC023134
:1018D800F0EC0241F0EC0251F0EC0261F0EC027124
:1018E800F0EC0281F0EC0291F0EC02A1F0EC02B114
:1018F800F0EC02C1F0EC02D1F0EC02E1F0EC02F104
:10190800704700BFE0EC0201E0EC0211E0EC0221BC
:10191800E0EC0231E0EC0241E0EC0251E0EC026163
:10192800E0EC0271E0EC0281E0EC0291E0EC02A153
:10193800E0EC02B1E0EC02C1E0EC02D1E0EC02E143
:10194800E0EC02F1704700BFB0FC0181B0FC0191EE
:10195800B0FC01A1B0FC01B1704700BFA0FC01813F
:10196800A0FC0191A0FC01A1A0FC01B1704700BF3F
:10197800EC4600B52DE900502DE9FF1F4FF000039C
:101988002DE90C0001A9FFF7EDFBDDF840E012B0EE
:10199800704700BFEC4600B52DE900502DE9FF1F48
:1019A8004FF000032DE90C0001A9FFF715FCDDF845
:1019B80040E012B0704700BFEC4600B52DE900507A
:1019C8002DE9FF1F4FF000032DE90C0001A9FFF7D7
:1019D80025FCDDF840E012B0704700BFEC4600B5CA
:1019E8002DE900502DE9FF1F4FF000032DE90C00F1
:1019F80001ABFFF7E7FBDDF840E012B0704700BF2E
:101A0800EC4600B52DE900502DE9FF1F4FF000030B
:101A18002DE90C0001AAFFF761FCDDF840E012B0E7
:101A2800704700BF027A1AB9437A43B9B0207047A9
:101A38000368013A02721A020260180E7047032105
:101A48004268013B10B443721368141D01721A02F4
:101A58004460026010BC180E704700BF002300B538
:101A680085B003AA009219460C22FFF7E9FB0398F8
:101A780005B05DF804FB00BFF0E700BF2DE9F043B7
:101A880006460F464FF0000885B03846FFF7CAFFF4
:101A9800B028044623D0050627D400230DF10C09ED
:101AA800194685000D22CDF800903046FFF7C8FB97
:101AB800EDB2039B600605F104054CBF5D1BED18F4
:101AC80000230D221946CDF8009030460395FFF704
:101AD800DDFB3846FFF7A6FFB0280446DBD1B8F196
:101AE800000F00F0948000201CE000F0F003802B31
:101AF8005CD0902B19D0A02B2CD0B02B3ED0C02B73
:101B08006BD000F0F803D02B0BD100F007020132A4
:101B180042F40022052301213046FFF787FD002803
:101B2800B3D0092005B0BDE8F08300F00D030D2BFC
:101B3800F7D0002303AD00F00F0219460095304698
:101B4800FFF77EFB0023009519460D223046FFF76C
:101B58009DFB9AE7C3434FF47F6203F007031A41E2
:101B68000023010702F47F6248BF42F4804219460D
:101B78003046FFF75BFD0028D3D186E7B12857D060
:101B8800B22868D0B32800F0958000F0FC03B42B8D
:101B9800C7D0012300F007021A4442F40022194674
:101BA8003046FFF743FD0028BBD16EE73846FFF704
:101BB80039FF24020443B4F5004FB2D000232401B6
:101BC800A2B219463046FFF731FD0028A9D114F416
:101BD800004F18BF4FF0010857E7C6287DD0C72827
:101BE80000F0868000F0F803C02B00F09480C8282D
:101BF80000F09F80C92894D13846FFF713FF0203ED
:101C080000F00F0002F470220130024382E703ACB7
:101C180043460E22414600943046FFF711FB0094DC
:101C2800304643460F224146FFF730FB404679E7EE
:101C38003846FFF7F7FE00283FF473AF10F0F003C3
:101C48007FF46FAF024619463046FFF7EFFC0028D5
:101C58007FF467AF19E700230DF10C090D2219462F
:101C6800CDF800903046FFF7EBFA3846FFF7DAFE7A
:101C780002064FF002040CD5039B00F07F00A04041
:101C8800034438460393FFF7CDFE030604F1070427
:101C9800F2D40023039900F07F02A24001F50171FC
:101CA8008C18CDF8009019460D2230460394FFF7A2
:101CB800EDFAEAE63846FFF7B5FE0123010300F026
:101CC8000F0001F47021C2180A4330461946FFF785
:101CD800ADFC00287FF425AFD7E63846FFF7A2FE13
:101CE800010300F00F00032301F47021421CEBE70D
:101CF8003846FFF797FE00283FF413AF10F0F003C3
:101D08007FF40FAF024604213046FFF78FFC00280E
:101D18007FF407AFB9E6032300F00F02013242F463
:101D2800202219463046FFF781FC00287FF4F9AEDF
:101D3800ABE63846FFF776FE00F0F00200F00F033E
:101D48001032013343EA0232E4E600BF30B503241F
:101D58000D46C36C85B05A688DF80C40DC791202C8
:101D6800083301A9284601928DF80D400293FFF728
:101D780085FE05B030BD00BF08B5FFF77DFE806C5D
:101D880008BD00BF08B5FFF777FEC06CC37900EB4C
:101D98008300083008BD00BF08B506F068FE00BF24
:101DA80008B5FFF7F9FF00BF704700BF80B500AF67
:101DB800084A084B1B6843F010031360032000F027
:101DC80053FD002000F008F802F002FF0023184637
:101DD80080BD00BF0020024080B582B000AF7860AF
:101DE800124B1A68124B1B7819464FF47A73B3FBDF
:101DF800F1F3B2FBF3F3184600F05DFD0346002B48
:101E080001D001230EE07B680F2B0AD800227968E5
:101E18004FF0FF3000F033FD064A7B681360002363
:101E280000E0012318460837BD4680BD8800002021
:101E3800840000208000002080B400AF054B1B7890
:101E48001A46054B1B681344034A136000BFBD467E
:101E580080BC7047840000204808002080B400AF90
:101E6800024B1B681846BD4680BC704748080020D6
:101E780080B584B000AF7860FFF7F0FFB8607B688A
:101E8800FB60FB68B3F1FF3F05D0094B1B781A468E
:101E9800FB681344FB6000BFFFF7E0FF0246BB6826
:101EA800D21AFB689A42F7D300BF1037BD4680BDEF
:101EB8008400002080B586B000AF78600023FB75F1
:101EC80000233B610023BB600023FB607B68002B81
:101ED80001D10123CEE07B689B68002B7B689B6A5D
:101EE800002B09D17B680022DA627B68002283F824
:101EF8002420786800F0C8F8786800F0CDFB034625
:101F0800FB757B689B6A03F01003002B40F0A980E7
:101F1800FB7D002B40F0A5807B689B6A23F48853E7
:101F280023F0020343F002027B689A627B685A68D6
:101F38007B681B6851498B420AD17B68DB69B3F522
:101F4800402F02D07B68DB6904E04FF4002301E0F6
:101F58007B68DB691A437B681B7B5B001343BA68A9
:101F68001343BB607B689B68B3F5807F03D07B68B5
:101F78009B68012B02D14FF4807300E000233A697B
:101F880013433B617B681B7D012B19D17B681B7B4D
:101F9800002B09D17B689B69013B5A033B691343BA
:101FA80043F400633B610BE07B689B6A43F02002CB
:101FB8007B689A627B68DB6A43F001027B68DA62BD
:101FC8007B681B687A681268526822F469413A692A
:101FD8000A435A607B681A687B681B689968284BB3
:101FE8000B40B9680B4393607B689B68B3F5807FAF
:101FF80003D07B689B68012B04D17B681B69013B7C
:102008001B05FB607B681B687A681268D26A22F439
:102018007001FA680A43DA627B681B689A68194B90
:102028001340BA6893420BD17B680022DA627B685E
:102038009B6A23F0030343F001027B689A6218E06D
:102048007B689B6A23F0120343F010027B689A6254
:102058007B68DB6A43F001027B68DA620123FB7567
:1020680007E07B689B6A43F010027B689A62012351
:10207800FB75FB7D18461837BD4680BD003C014006
:10208800FDF7E1FFFE0E1FFF80B483B000AF78605C
:1020980000BF0C37BD4680BC7047000080B584B0D7
:1020A80000AF78600023FB737B6893F82430012B22
:1020B80001D1022398E07B68012283F82420786804
:1020C80000F098FA0346FB73FB7B002B40F08780F7
:1020D8007B689B6A23F4407323F0010343F4807206
:1020E8007B689A627B681B68414A934205D1414BE1
:1020F8005B6803F47023002B15D17B689B6A23F47B
:1021080080127B689A627B681B685B6803F4806353
:10211800002B26D07B689B6A23F4405343F48052FB
:102128007B689A621DE07B689B6A43F480127B6837
:102138009A627B681B682F4A934204D07B681B68AD
:102148002B4A93420DD12B4B5B6803F48063002B21
:1021580007D07B689B6A23F4405343F480527B6822
:102168009A627B689B6A03F48053002B06D07B68D5
:10217800DB6A23F006027B68DA6202E07B680022F1
:10218800DA627B68002283F824207B681B686FF082
:1021980002021A607B681B689B6803F46023B3F52E
:1021A800602F13D17B681B68114A934205D1114BEC
:1021B8005B6803F47023002B08D17B681B687A687E
:1021C8001268926842F4A0029A600CE07B681B686F
:1021D8007A681268926842F480129A6003E07B6819
:1021E800002283F82420FB7B18461037BD4680BDAB
:1021F800002801400024014090B587B000AF786006
:10220800396000237B610023FB6000233B61FFF7FB
:1022180025FE78617B681B689B6803F48073002B3C
:102228000BD07B689B6A43F020027B689A627B68CC
:10223800002283F824200123C8E07B681B685B68C0
:1022480003F48073002B2AD17B681B68DB6A03F4D4
:102258007003002B23D11AE03B68B3F1FF3F16D07F
:102268003B68002B07D0FFF7F9FD02467B69D21ABD
:102278003B689A420BD97B689B6A43F004027B68EF
:102288009A627B68002283F8242003239EE07B68FF
:102298001B681B6803F00203002BDDD06CE04D4B7C
:1022A8001C68022001F09AF80346B4FBF3F27B683D
:1022B8001B681969484B0B40002B18D17B681B68B9
:1022C800D968464B0B40002B11D17B681B681969F4
:1022D800434B0B40002B08D17B681B68D968414BE6
:1022E8000B40002B01D1142320E029231EE07B683A
:1022F8001B6819693A4B0B40002B06D17B681B6899
:10230800D968384B0B40002B0DD07B681B681969C6
:10231800354B0B40002B08D17B681B68D968324BC2
:102328000B40002B01D1542300E0FC2303FB02F3F4
:102338003B611DE03B68B3F1FF3F16D03B68002BC3
:1023480007D0FFF78BFD02467B69D21A3B689A4299
:102358000BD97B689B6A43F004027B689A627B68AE
:10236800002283F82420032330E0FB680133FB605C
:10237800FA683B699A42DDD37B681B686FF01202EA
:102388001A607B689B6A43F400727B689A627B6878
:102398001B689B6803F46023B3F5602F15D17B6835
:1023A8001B7B002B11D17B689B6A23F480727B68AE
:1023B8009A627B689B6A03F48053002B05D17B6883
:1023C8009B6A43F001027B689A62002318461C3717
:1023D800BD4690BD880000202449922424499200DB
:1023E80092244912922449004992240080B483B06F
:1023F80000AF78607B681B68DB6C18460C37BD46FD
:1024080080BC704790B484B000AF78603960002316
:10241800FB730023BB607B6893F82430012B01D148
:102428000223DCE07B68012283F824203B685B6898
:10243800062B1CD87B6819687B681B68586B3B683F
:102448005A6813469B001344053B1F2202FA03F304
:10245800DB4318403B681C683B685A6813469B007E
:102468001344053B04FA03F303434B633CE03B6826
:102478005B680C2B1CD87B6819687B681B68186B19
:102488003B685A6813469B001344233B1F2202FAF9
:1024980003F3DB4318403B681C683B685A681346E3
:1024A8009B001344233B04FA03F303430B631BE031
:1024B8007B6819687B681B68D86A3B685A6813464A
:1024C8009B001344413B1F2202FA03F3DB431840ED
:1024D8003B681C683B685A6813469B001344413BA1
:1024E80004FA03F30343CB623B681B68092B1CD92E
:1024F8007B6819687B681B68D8683B681A6813464C
:102508005B0013441E3B072202FA03F3DB43184027
:102518003B689C683B681A6813465B0013441E3B83
:1025280004FA03F30343CB6019E07B6819687B68FE
:102538001B6818693B681A6813465B001344072236
:1025480002FA03F3DB4318403B689C683B681A684F
:1025580013465B00134404FA03F303430B613B681F
:102568001B68102B03D03B681B68112B32D17B688A
:102578001B681D4A934225D17B681B689B6803F43E
:102588000003002B26D17B681B687A681268926862
:1025980042F400029A603B681B68102B1AD1134B57
:1025A8001B68134AA2FB03239A0C13469B0013448F
:1025B8005B00BB6002E0BB68013BBB60BB68002BF3
:1025C800F9D107E07B689B6A43F020027B689A6236
:1025D8000123FB737B68002283F82420FB7B1846C9
:1025E8001037BD4690BC7047002401408800002089
:1025F80083DE1B4380B584B000AF78600023FB60A6
:102608000023BB607B681B689B6803F00103012BF8
:1026180039D07B681B687A681268926842F00102B8
:102628009A601B4B1B681B4AA2FB03239B0CBB60D5
:1026380002E0BB68013BBB60BB68002BF9D1FFF728
:102648000DFCF86018E0FFF709FC0246FB68D31A96
:10265800022B11D97B689B6A43F010027B689A624F
:102668007B68DB6A43F001027B68DA627B680022E0
:1026780083F82420012307E07B681B689B6803F02C
:102688000103012BDFD1002318461037BD4680BD5A
:102698008800002083DE1B4380B584B000AF7860DB
:1026A8000023FB607B681B689B6803F00103012B18
:1026B80027D17B681B687A681268926822F0010249
:1026C8009A60FFF7CBFBF86014E0FFF7C7FB024600
:1026D800FB68D31A022B0DD97B689B6A43F0100262
:1026E8007B689A627B68DB6A43F001027B68DA6286
:1026F800012307E07B681B689B6803F00103012B3B
:10270800E3D0002318461037BD4680BD80B485B09D
:1027180000AF78607B6803F00703FB600C4BDB6855
:10272800BB60BA684FF6FF031340BB60FB681A0230
:10273800BB68134343F0BF6343F40033BB60044AF0
:10274800BB68D36000BF1437BD4680BC704700BF6C
:1027580000ED00E080B400AF044BDB681B0A03F017
:1027680007031846BD4680BC704700BF00ED00E077
:1027780080B483B000AF03463960FB7197F9073026
:10278800002B0ADB0D4997F907303A68D2B21201DB
:10279800D2B20B4483F800230AE00949FB7903F01D
:1027A8000F03043B3A68D2B21201D2B20B441A7634
:1027B80000BF0C37BD4680BC704700BF00E100E099
:1027C80000ED00E080B489B000AFF860B9607A60CD
:1027D800FB6803F00703FB61FB69C3F10703042BE4
:1027E80028BF0423BB61FB690433062B02D9FB69AC
:1027F800033B00E000237B610122BB6902FA03F37B
:102808005A1EBB681A407B699A4001217B6901FA0C
:1028180003F3591E7B680B40134318462437BD4603
:1028280080BC704780B582B000AF78607B68013BA0
:10283800B3F1807F01D301230FE00A4A7B68013B93
:1028480053600F214FF0FF30FFF792FF054B002236
:102858009A60044B07221A60002318460837BD46C1
:1028680080BD00BF10E000E080B582B000AF7860A6
:102878007868FFF74BFF00BF0837BD4680BD80B5BD
:1028880086B000AF0346B9607A60FB7300237B61B2
:10289800FFF760FF78617A68B9687869FFF792FF97
:1028A800024697F90F3011461846FFF761FF00BF3F
:1028B8001837BD4680BD80B582B000AF78607868B3
:1028C800FFF7B0FF034618460837BD4680BD000035
:1028D80080B48BB000AF7860396000237B6200233E
:1028E8003B6233E101227B6A02FA03F3FB613B6836
:1028F8001A68FB691340BB61BA69FB699A4240F0E8
:1029080022813B685B68122B34D0122B0DD8022B26
:102918002BD0022B04D8002B31D0012B1CD048E03F
:10292800032B43D0112B1BD043E08F4A934226D070
:102938008D4A934206D88D4A934220D08C4A9342BE
:102948001DD036E08B4A934219D08B4A934216D059
:102958008A4A934213D02CE03B68DB683B6228E04C
:102968003B68DB6804333B6223E03B68DB68083381
:102978003B621EE03B68DB680C333B6219E03B6856
:102988009B68002B02D104233B6212E03B689B68E2
:10299800012B05D108233B627B68FA691A6108E0BC
:1029A80008233B627B68FA695A6102E000233B62B4
:1029B80000BFBB69FF2B01D87B6801E07B6804334B
:1029C8007B61BB69FF2B02D87B6A9B0002E07B6AB4
:1029D800083B9B003B617B691A680F213B6901FA40
:1029E80003F3DB431A40396A3B6901FA03F31A43DC
:1029F8007B691A603B685B6803F08053002B00F02A
:102A0800A2805F4A5E4B9B6943F0010393615C4B74
:102A18009B6903F00103BB60BB685A4A7B6A9B0849
:102A2800023352F82330FB607B6A03F003039B00F8
:102A38000F2202FA03F3DB43FA681340FB607B685A
:102A4800514A93421FD07B68504A934219D07B6801
:102A58004F4A934213D07B684E4A93420DD07B680D
:102A68004D4A934207D07B684C4A934201D10523D3
:102A78000AE0062308E0042306E0032304E0022317
:102A880002E0012300E000237A6A02F003029200C8
:102A98009340FA681343FB603A497B6A9B08023308
:102AA800FA6841F823203B685B6803F48033002B05
:102AB80006D03B493A4B1A68BB6913430B6006E0E2
:102AC8003749374B1A68BB69DB4313400B603B68D7
:102AD8005B6803F40033002B06D03149304B5A6849
:102AE800BB6913434B6006E02D492D4B5A68BB69FF
:102AF800DB4313404B603B685B6803F48013002B97
:102B080006D02749264B9A68BB6913438B6006E0B9
:102B18002349234B9A68BB69DB4313408B603B68AE
:102B28005B6803F40013002B06D01D491C4BDA68C0
:102B3800BB691343CB6006E01949194BDA68BB69D6
:102B4800DB431340CB607B6A01337B623B681A68C6
:102B58007B6A22FA03F3002B7FF4C4AE00BF2C3744
:102B6800BD4680BC704700BF000021100000111056
:102B78000000121000003110000032100000221076
:102B8800001002400000014000080140000C014014
:102B9800001001400014014000180140001C0140D1
:102BA8000004014080B586B000AF78607B68002BD8
:102BB80001D101236CE27B681B6803F00103002B41
:102BC80000F08780924B5B6803F00C03042B0CD059
:102BD8008F4B5B6803F00C03082B12D18C4B5B689E
:102BE80003F48033B3F5803F0BD1894B1B6803F4A2
:102BF8000033002B6CD07B685B68002B68D1012305
:102C080046E27B685B68B3F5803F06D1804A804B1B
:102C18001B6843F4803313602EE07B685B68002BED
:102C28000CD17B4A7A4B1B6823F480331360784AB3
:102C3800774B1B6823F4802313601DE07B685B6877
:102C4800B3F5A02F0CD1724A714B1B6843F4802353
:102C580013606F4A6E4B1B6843F4803313600BE0BC
:102C68006B4A6B4B1B6823F480331360684A684BCC
:102C78001B6823F4802313607B685B68002B13D0E8
:102C8800FFF7ECF8386108E0FFF7E8F802463B691F
:102C9800D31A642B01D90323FAE15D4B1B6803F4B3
:102CA8000033002BF0D014E0FFF7D8F8386108E0C3
:102CB800FFF7D4F802463B69D31A642B01D90323E2
:102CC800E6E1534B1B6803F40033002BF0D100E01E
:102CD80000BF7B681B6803F00203002B63D04C4BDA
:102CE8005B6803F00C03002B0BD0494B5B6803F0C7
:102CF8000C03082B1CD1464B5B6803F48033002B74
:102D080016D1434B1B6803F00203002B05D07B68E8
:102D18001B69012B01D00123BAE13D493C4B1B68DB
:102D280023F0F8027B685B69DB0013430B603AE031
:102D38007B681B69002B20D0364B01221A60FFF7F5
:102D48008DF8386108E0FFF789F802463B69D31A25
:102D5800022B01D903239BE12D4B1B6803F00203CF
:102D6800002BF0D02A492A4B1B6823F0F8027B6815
:102D78005B69DB0013430B6015E0264B00221A60E9
:102D8800FFF76CF8386108E0FFF768F802463B691E
:102D9800D31A022B01D903237AE11D4B1B6803F0D8
:102DA8000203002BF0D17B681B6803F00803002B9B
:102DB8003AD07B689B69002B19D0174B01221A6007
:102DC800FFF74CF8386108E0FFF748F802463B691E
:102DD800D31A022B01D903235AE10D4B5B6A03F086
:102DE8000203002BF0D0012000F0DAFA1CE00A4BB5
:102DF80000221A60FFF732F838610FE0FFF72EF86B
:102E080002463B69D31A022B08D9032340E100BFCD
:102E18000010024000004242800442429E4B5B6A1E
:102E280003F00203002BE9D17B681B6803F004035D
:102E3800002B00F0A6800023FB75974BDB6903F09D
:102E48008053002B0DD1944A934BDB6943F0805398
:102E5800D361914BDB6903F08053BB60BB680123EE
:102E6800FB758E4B1B6803F48073002B18D18B4ABB
:102E78008A4B1B6843F480731360FEF7EFFF3861D9
:102E880008E0FEF7EBFF02463B69D31A642B01D931
:102E98000323FDE0814B1B6803F48073002BF0D003
:102EA8007B68DB68012B06D17B4A7B4B1B6A43F0AE
:102EB800010313622DE07B68DB68002B0CD1764A96
:102EC800754B1B6A23F001031362734A724B1B6A2A
:102ED80023F0040313621CE07B68DB68052B0CD12C
:102EE8006D4A6D4B1B6A43F0040313626A4A6A4BCE
:102EF8001B6A43F0010313620BE0674A664B1B6AC7
:102F080023F001031362644A634B1B6A23F0040332
:102F180013627B68DB68002B15D0FEF79FFF3861D2
:102F28000AE0FEF79BFF02463B69D31A41F288325A
:102F3800934201D90323ABE0574B1B6A03F002030A
:102F4800002BEED014E0FEF789FF38610AE0FEF7A7
:102F580085FF02463B69D31A41F28832934201D970
:102F6800032395E04C4B1B6A03F00203002BEED1C0
:102F7800FB7D012B05D1484A474BDB6923F0805381
:102F8800D3617B68DB69002B00F08180424B5B6872
:102F980003F00C03082B61D07B68DB69022B46D158
:102FA8003F4B00221A60FEF759FF386108E0FEF730
:102FB80055FF02463B69D31A022B01D9032367E068
:102FC800354B1B6803F00073002BF0D17B681B6A3C
:102FD800B3F5803F08D130492F4B5B6823F40032AA
:102FE8007B689B6813434B602B482B4B5B6823F42F
:102FF80074127B68196A7B685B6A0B4313434360EE
:10300800274B01221A60FEF729FF386108E0FEF716
:1030180025FF02463B69D31A022B01D9032337E067
:103028001D4B1B6803F00073002BF0D02FE01C4BE6
:1030380000221A60FEF712FF386108E0FEF70EFF63
:1030480002463B69D31A022B01D9032320E0124B15
:103058001B6803F00073002BF0D118E07B68DB6974
:10306800012B01D1012313E00B4B5B68FB60FB686C
:1030780003F480327B681B6A9A4206D1FB6803F42A
:1030880070127B685B6A9A4201D0012300E000233A
:1030980018461837BD4680BD001002400070004039
:1030A8006000424280B584B000AF786039607B68C8
:1030B800002B01D10123D0E06A4B1B6803F0070203
:1030C8003B689A4210D26749664B1B6823F0070297
:1030D8003B6813430B60634B1B6803F007023B68B4
:1030E8009A4201D00123B8E07B681B6803F0020311
:1030F800002B20D07B681B6803F00403002B05D04D
:10310800594A594B5B6843F4E06353607B681B681A
:1031180003F00803002B05D0534A534B5B6843F474
:10312800605353605049504B5B6823F0F0027B6852
:103138009B6813434B607B681B6803F00103002BFB
:1031480040D07B685B68012B07D1474B1B6803F4B1
:103158000033002B15D101237FE07B685B68022BCD
:1031680007D1414B1B6803F00073002B09D10123E1
:1031780073E03D4B1B6803F00203002B01D10123D0
:103188006BE03949384B5B6823F003027B685B6866
:1031980013434B60FEF762FEF8600AE0FEF75EFE3E
:1031A8000246FB68D31A41F28832934201D90323BD
:1031B80053E02D4B5B6803F00C027B685B689B0057
:1031C8009A42EBD1274B1B6803F007023B689A42EF
:1031D80010D92449234B1B6823F007023B6813438B
:1031E8000B60204B1B6803F007023B689A4201D032
:1031F800012332E07B681B6803F00403002B08D02E
:103208001949194B5B6823F4E0627B68DB68134358
:103218004B607B681B6803F00803002B09D0124938
:10322800114B5B6823F460527B681B69DB00134316
:103238004B6000F021F801460B4B5B681B0903F05B
:103248000F030A4AD35C21FA03F3094A1360094BB6
:103258001B681846FEF7C0FD002318461037BD4608
:1032680080BD00BF0020024000100240B48B00085F
:10327800880000208000002090B48AB000AF2A4B5C
:103288003C1D0FCB84E80F00284B1B883B80002394
:10329800FB610023BB6100237B6200237B61002369
:1032A8003B62234B5B68FB61FB6903F00C03042B57
:1032B80002D0082B03D02DE01E4B3B622DE0FB69AA
:1032C8009B0C03F00F0307F12802134413F8243C66
:1032D8007B61FB6903F48033002B13D0144B5B68CC
:1032E8005B0C03F0010307F12802134413F8283C90
:1032F800BB617B690F4A02FB03F2BB69B2FBF3F3C4
:103308007B6204E07B690C4A02FB03F37B627B6A05
:103318003B6202E0074B3B6200BF3B6A1846283716
:10332800BD4690BC704700BF288B0008388B00084A
:103338000010024000127A0000093D0080B400AF7E
:10334800024B1B681846BD4680BC704788000020A9
:1033580080B500AFFFF7F2FF0146054B5B681B0A1B
:1033680003F00703034AD35C21FA03F3184680BD30
:1033780000100240C48B000880B500AFFFF7DEFFE5
:103388000146054B5B68DB0A03F00703034AD35C7D
:1033980021FA03F3184680BD00100240C48B0008D0
:1033A80080B485B000AF78600A4B1B680A4AA2FB5C
:1033B80003235B0A7A6802FB03F3FB6000BFFB6828
:1033C8005A1EFA60002BF9D100BF1437BD4680BCE5
:1033D800704700BF88000020D34D621090B58DB0B3
:1033E80000AF78606B4B07F10C040FCB84E80F003B
:1033F800694B1B883B8100237B620023FB6200230F
:103408003B620023FB610023BB627B68013B0F2BFF
:1034180000F2B68001A252F823F000BF0735000879
:103428006D35000889350008F7340008893500082B
:103438008935000889350008FF34000889350008F7
:10344800893500088935000889350008893500085C
:103458008935000889350008653400084F4B5B68DA
:10346800FB614E4B1B6803F08073002B00F08A80D1
:10347800FB699B0C03F00F0307F13002134413F8A8
:10348800243C3B62FB6903F48033002B18D0434B88
:103498005B685B0C03F0010307F13002134413F877
:1034A800283C7B62FB6903F48033002B0DD03C4A37
:1034B8007B6AB2FBF3F33A6A02FB03F3FB6204E0B4
:1034C8003B6A384A02FB03F3FB62344B5B6803F444
:1034D8008003B3F5800F02D1FB6ABB6252E0FB6A3E
:1034E8005B00314AA2FB03235B08BB624AE0FFF79B
:1034F800C3FEB86249E0FFF7BFFEB86245E0274B5C
:103508001B6AFB61FB6903F44073B3F5807F08D144
:10351800FB6903F00203002B03D04FF40043BB62A6
:103528001FE0FB6903F44073B3F5007F09D11B4B1F
:103538005B6A03F00203002B03D049F64043BB62E9
:103548000FE0FB6903F44073B3F5407F1CD1134BC4
:103558001B6803F40033002B16D04FF22443BB62E0
:1035680012E011E0FFF708FF02460C4B5B689B0B6B
:1035780003F0030301335B00B2FBF3F3BB6204E027
:1035880000BF02E000BF00E000BFBB6A1846343746
:10359800BD4690BD3C8B00084C8B000800100240D3
:1035A80000127A0000093D00ABAAAAAA80B483B031
:1035B80000AF78607B6818460C37BD4680BC704702
:1035C80080B582B000AF786039607B68012B07D185
:1035D8003B684FF6FF72934202D10348FFF7E6FFBC
:1035E80000BF0837BD4680BD1807002080B500AF72
:1035F8004FF6FF710120FFF7E3FF80BD80B588B06B
:1036080002AFF8607A601A460B467B8113463B810D
:10361800FEF724FC7861FB6893F83D30DBB2202B81
:1036280040F0E0807B690093192301227049F86813
:1036380000F062F90346002B01D00223D3E0FB68B7
:1036480093F83C30012B01D10223CCE0FB68012226
:1036580083F83C20FB681B681B6803F00103012BFF
:1036680007D0FB681B68FA681268126842F001020A
:103678001A60FB681B68FA681268126822F4006214
:103688001A60FB68212283F83D20FB68102283F82A
:103698003E20FB6800221A64FB687A685A62FB685D
:1036A8003A895A85FB685B8D9AB2FB681A85FB6874
:1036B800504ADA6279897B693A6AF86800F09CF8BE
:1036C8000346002B01D001238DE000233B61FB68FA
:1036D8001B685B693B61FB681B689B693B613B69D5
:1036E80066E07A69396AF86800F0DBF90346002B6E
:1036F8000DD0FB681B6C042B07D1FB681B68FA68AC
:103708001268126842F400721A6001236BE0FB68C9
:103718001B68FA68526A12781A61FB685B6A5A1C5D
:10372800FB685A62FB685B8D9BB2013B9AB2FB68EF
:103738005A85FB681B8D013B9AB2FB681A85FB68AA
:103748001B685B6903F00403042B1BD1FB681B8D0A
:10375800002B17D0FB681B68FA68526A12781A6146
:10376800FB685B6A5A1CFB685A62FB685B8D9BB2FC
:10377800013B9AB2FB685A85FB681B8D013B9AB2E4
:10378800FB681A857A69396AF86800F0CBF903464C
:10379800002B0DD0FB681B6C042B07D1FB681B6842
:1037A800FA681268126842F400721A6001231AE07B
:1037B800FB681B8D002B94D1FB681B68FA681268A4
:1037C800126842F400721A60FB68202283F83D20D8
:1037D800FB68002283F83E20FB68002283F83C2027
:1037E800002300E0022318461837BD4680BD00BFFD
:1037F800020010000000FFFF80B588B002AFF8603B
:103808007A603B600B467B81FB68DB6A7B617B6986
:10381800082B06D07B69012B03D07B6913F5803F09
:1038280008D1FB681B68FA681268126842F4807253
:103838001A600BE0FB681B6B122B07D1FB681B6837
:10384800FA681268126842F480721A603B68009342
:103858007B6800224FF00111F86800F04DF803462C
:10386800002B0CD0FB681B681B6803F48073002BCB
:1038780003D0FB684FF400721A64032334E0FB683A
:103888001B69B3F5804F07D1FB681B687A89D2B2F0
:1038980002F0FE021A611BE0FB681B687A89D211EC
:1038A800D2B202F00602D2B262F00F02D2B21A61AC
:1038B8003B687A680E49F86800F074F80346002BF4
:1038C80001D0012310E0FB681B687A89D2B21A6123
:1038D8003B687A680749F86800F064F80346002BEB
:1038E80001D0012300E0002318461837BD4680BDEB
:1038F800080001000200010080B584B000AFF86044
:10390800B9603B601346FB71BB681B0CDBB2012B33
:103918000DD1FB681B685B69DA43BB6813409BB237
:10392800002B0CBF01230023DBB21A460CE0FB6816
:103938001B689B69DA43BB6813409BB2002B0CBF22
:1039480001230023DBB21A46FB799A4225D13B6852
:10395800B3F1FF3F21D0FEF781FA0246BB69D21AC4
:103968003B689A4202D83B68002B16D1FB680022BC
:103978001A63FB68202283F83D20FB68002283F845
:103988003E20FB681B6C43F02002FB681A64FB684E
:10399800002283F83C20012300E00023184610375A
:1039A800BD4680BD80B584B000AFF860B9607A606C
:1039B8003B6051E0FB681B685B6903F48063B3F507
:1039C800806F23D1FB681B68FA681268126842F49A
:1039D80000721A60FB681B686FF480625A61FB68AA
:1039E80000221A63FB68202283F83D20FB6800222E
:1039F80083F83E20FB681B6C43F00402FB681A64E2
:103A0800FB68002283F83C20012346E07B68B3F181
:103A1800FF3F21D0FEF722FA02463B68D21A7B68A4
:103A28009A4202D87B68002B16D1FB6800221A63E1
:103A3800FB68202283F83D20FB68002283F83E20A3
:103A4800FB681B6C43F02002FB681A64FB680022C9
:103A580083F83C20012320E0BB681B0CDBB2012B60
:103A68000CD1FB681B685B69DA43BB6813409BB2E7
:103A7800002B14BF01230023DBB20BE0FB681B689B
:103A88009B69DA43BB6813409BB2002B14BF012328
:103A98000023DBB2002B8DD1002318461037BD461A
:103AA80080BD80B584B000AFF860B9607A602DE061
:103AB800F86800F078F80346002B01D001232DE0C8
:103AC800BB68B3F1FF3F21D0FEF7C8F902467B6817
:103AD800D21ABB689A4202D8BB68002B16D1FB6881
:103AE80000221A63FB68202283F83D20FB6800222D
:103AF80083F83E20FB681B6C43F02002FB681A64C5
:103B0800FB68002283F83C20012307E0FB681B6860
:103B18005B6903F08003802BCAD100231846103755
:103B2800BD4680BD80B584B000AFF860B9607A60EA
:103B38002DE0F86800F037F80346002B01D0012388
:103B48002DE0BB68B3F1FF3F21D0FEF787F90246AD
:103B58007B68D21ABB689A4202D8BB68002B16D180
:103B6800FB6800221A63FB68202283F83D20FB686B
:103B7800002283F83E20FB681B6C43F02002FB68A0
:103B88001A64FB68002283F83C20012307E0FB68E5
:103B98001B685B6903F00403042BCAD10023184691
:103BA8001037BD4680BD80B483B000AF78607B68B5
:103BB8001B685B6903F48063B3F5806F1BD17B6876
:103BC8001B686FF480625A617B6800221A637B6805
:103BD800202283F83D207B68002283F83E207B6802
:103BE8001B6C43F004027B681A647B68002283F82C
:103BF8003C20012300E0002318460C37BD4680BC5A
:103C0800704780B485B000AFF860B9601346FB8098
:103C1800FB88012202FA03F39BB21A46BB681A61B9
:103C280000BF1437BD4680BC704780B485B000AF74
:103C3800F860B9601346FB80FB88012202FA03F39F
:103C48001A04BB681A6100BF1437BD4680BC7047B0
:103C580080B485B000AFF860B9601346FB80FB887C
:103C6800072B14DCBB681B68FA8892000F2101FA45
:103C780002F2D2431A40BB681A60BB681B68FA8814
:103C88009200032101FA02F21A43BB681A60FB880A
:103C9800072B16DDBB685B68FA88083A92000F218B
:103CA80001FA02F2D2431A40BB685A60BB685B68EB
:103CB800FA88083A9200032101FA02F21A43BB6813
:103CC8005A6000BF1437BD4680BC704780B584B0C9
:103CD80000AFF860B9601346FB80FB881A46B968E4
:103CE800F868FFF7B5FFFB881A46B968F868FFF768
:103CF80088FF4FF4C870FEF7BBF8FB881A46B9680E
:103D0800F868FFF792FF4FF4C870FEF7B1F800BFEC
:103D18001037BD4680BD000080B483B000AF786026
:103D28000B46FB70FB7803F00103002B05D0214AFA
:103D3800204B9B6943F004039361FB7803F0020373
:103D4800002B05D01B4A1B4B9B6943F0080393616A
:103D5800FB7803F00403002B05D0164A154B9B692A
:103D680043F010039361FB7803F00803002B05D0A0
:103D7800104A104B9B6943F020039361FB7803F0D2
:103D88001003002B05D00B4A0A4B9B6943F04003F4
:103D98009361FB7803F02003002B05D0054A054BFF
:103DA8009B6943F48073936100BF0C37BD4680BCA8
:103DB800704700BF0010024080B584B000AF786043
:103DC8000023FB813F217868FFF7A6FF06220749F9
:103DD8007868FFF73DFF072204497868FFF738FF46
:103DE800FB8918461037BD4680BD00BF0010014052
:103DF80082B090B59DB018AF7860396007F12001A6
:103E080081E80C003A6B3B681A603B68A54A5A6027
:103E18003B6800229A603B680022DA603B684FF4F6
:103E280080421A613B6800225A613B6800229A610D
:103E38003B680022DA613B6800221A623B68002B6B
:103E480001D1012326E13B6893F83D30DBB2002B1A
:103E58000CBF01230023DBB2002B11D03B680022EA
:103E680083F83C20684607F128036022194601F0D0
:103E78003DF807F120030CCB3968786800F01CF98D
:103E88003B68242283F83D203B681B683A68126827
:103E9800126822F001021A603B681B683A681268CF
:103EA800126842F400421A603B681B683A6812685C
:103EB800126822F400421A60FFF74AFA0346FB60D0
:103EC8003B685B68774A934207D8FB68764A934217
:103ED80094BF01230023DBB206E0FB68734A9342D8
:103EE80094BF01230023DBB2002B01D00123D1E0D2
:103EF800FB686F4AA2FB03239B0CBB603B681B68F3
:103F08003A681268526822F03F01BA680A435A6058
:103F18003B681A683B681B681B6A23F03F013B68D3
:103F28005B686048834202D8BB68013309E0BB681C
:103F38004FF4967000FB03F35E48A0FB03039B0954
:103F480001330B4313623B6818683B681B68DB69E5
:103F580023F44F4222F0FF023B685B6851498B42D1
:103F68000DD8FB68591E3B685B685B00B1FBF3F337
:103F78000133C3F30B03042B38BF042345E03B682C
:103F88009B68002B0CD1FB685C1E3B6859680B468C
:103F98005B000B44B4FBF3F30133C3F30B030DE0F5
:103FA800FB685C1E3B6859680B469B000B449900F4
:103FB8000B44B4FBF3F30133C3F30B03002B23D0FF
:103FC8003B689B68002B0ED1FB685C1E3B685968F8
:103FD8000B465B000B44B4FBF3F30133C3F30B0351
:103FE80043F4004311E0FB685C1E3B6859680B46CC
:103FF8009B000B4499000B44B4FBF3F30133C3F368
:104008000B0343F4404300E001231343C3613B68BF
:104018001B683A681268126822F0C0013A68D069D1
:104028003A68126A02430A431A603B681A683B6896
:104038001B689B6823F4034323F0FF03396808696E
:104048003968C96801430B4393603B681B683A6849
:104058001268D26822F0FF013A6850693A6892699A
:1040680002430A43DA603B681B683A6812681268C0
:1040780042F001021A603B6800221A643B68202261
:1040880083F83D203B6800221A633B68002283F8CE
:104098003E20002318461437BD46BDE8904002B0C4
:1040A800704700BFA08601007F841E00FF083D0006
:1040B80083DE1B43D34D621082B080B58AB000AF57
:1040C8007860396007F1300181E80C0007F11803C6
:1040D80000221A605A609A60DA603B681A683B6C82
:1040E8009A4244D1254A254B9B6943F008039361C2
:1040F800224B9B6903F008037B617B69BB8E1A46E0
:10410800012393409AB2BB8F194601238B409BB27F
:1041180013439BB2BB611223FB6103237B6207F14C
:10412800180319461648FEF7D3FB3B681B68154A67
:1041380093420BD1114A114BDB6943F40013D3614D
:104148000E4BDB6903F400133B613B693B681B685A
:104158000D4A93420BD1094A084BDB6943F48003AB
:10416800D361064BDB6903F48003FB60FB6800BF87
:104178002837BD46BDE8804002B0704700100240B5
:10418800000C0140005400400058004080B584B045
:1041980000AFF860B9607A60FB707B681B0CDBB21B
:1041A800012B0CD1BB681B685B69DA437B68134041
:1041B8009BB2002B01D101230DE000230BE0BB686B
:1041C8001B689B69DA437B6813409BB2002B01D1C3
:1041D800012300E00023FA7893420CBF0123002357
:1041E800DBB2002B2AD0BB69B3F1FF3FD5D0FDF776
:1041F80035FE0246FB69D21ABB699A4202D8BB69EE
:10420800002B01D1012300E00023002BC5D0BB689F
:1042180000221A63BB68202283F83D20BB68002275
:1042280083F83E20BB681B6C43F02002BB681A640D
:10423800BB68002283F83C20012300E000231846D5
:104248001037BD4680BD000084B080B586B002AF8F
:10425800786007F11C0080E80E00FF233B73002301
:10426800FB730023BB7300237B737B7B7E2B29DCD2
:104278007B7B9AB207F11C0303F1140164230093BA
:104288000123786800F030F803463B733B7B002B32
:104298000ED1FB7BD7F8842013447A7B1A707B7B82
:1042A8003A7B19460E4800F035FEFB7B0133FB7361
:1042B8003B7B012B02D1BB7B0133BB737B7B01337F
:1042C8007B73D2E7BB7BFA7B1946064800F022FED7
:1042D80000BF1037BD46BDE8804004B0704700BF3E
:1042E800508B00085C8B000880B58AB002AFF8607C
:1042F800B9603B601346FB80FDF7B0FD0346FB61E8
:104308000123BB61BB6893F83D30DBB2202B0CBFA7
:1043180001230023DBB2002B00F03681FB690193F7
:104328001923009301239B4AB968F868FFF72EFF09
:104338000346002B14BF01230023DBB2002B01D05E
:10434800022322E1BB681B681B6803F00103012BF1
:1043580014BF01230023DBB2002B07D0BB681B6806
:10436800BA681268126842F001021A60BB681B68DA
:10437800BA681268126822F400621A60BB682422C4
:1043880083F83D20BB6800221A64BB68824ADA625F
:10439800BB681B68BA681268126842F480721A60B7
:1043A800FB690193BB6A009300234FF00112B968BF
:1043B800F868FFF7EBFE0346002B14BF0123002328
:1043C800DBB2002B11D0BB681B681B6803F4807339
:1043D800002B14BF01230023DBB2002B03D0BB68E2
:1043E8004FF400721A640323CFE0BB681B68FA8895
:1043F800D2B202F0FE021A61FDF730FD0346FB61FE
:10440800BB681B685B6903F00203022B01D101231F
:1044180000E00023FB75BB681B685B6903F48063DD
:10442800B3F5806F01D1012300E00023BB75BB68A1
:1044380093F83D30DBB2A02B07D0FB7D002B04D1D5
:10444800BB7D002B01D1012300E00023002B2BD0E2
:10445800FDF704FD0246FB69D21ABB6A9A4202D8EC
:10446800BB6A002B01D1012300E00023002B03D0FD
:10447800BB68A02283F83D20BB681B685B6903F01A
:104488000203022B01D1012300E00023FB75BB6866
:104498001B685B6903F48063B3F5806F01D1012366
:1044A80000E00023BB75C2E7BB68202283F83D20EB
:1044B800BB681B685B6903F00203022B01D101236F
:1044C80000E00023002B2CD0BB681B68BA68126878
:1044D800126842F400721A6000233B61BB681B68D3
:1044E8005B693B61BB681B689B693B613B69FB6916
:1044F8000193192300930123264AB968F868FFF746
:1045080045FE0346002B14BF01230023DBB2002B1A
:1045180001D0012339E0BB68202283F83D20002325
:1045280033E0BB681B68BA681268126842F400720C
:104538001A60BB681B686FF480625A61FB6901935B
:10454800192300930123134AB968F868FFF71EFE80
:104558000346002B14BF01230023DBB2002B01D03C
:10456800012312E0BB690133BB61BA693B689A4217
:1045780000D20DE7BB68202283F83D20BB680022EB
:1045880083F83C20012300E0022318462037BD466B
:1045980080BD00BF020010000000FFFF80B586B09C
:1045A80000AFF860B9607A60FB70FB78012B2FD1FF
:1045B800BB683B6197F820309BB2BB8207F11003C0
:1045C8001946F86800F07EF807F110010023002270
:1045D800F86800F046F907F110037A681946F86898
:1045E80000F01FF907F1100101230022F86800F01C
:1045F80038F907F110030D4A1946F86800F011F967
:1046080040F20E60FDF734FC094800F0FBFC05E0C1
:10461800FB78002B02D1074800F0F4FC4FF47A70C5
:10462800FDF726FC00BF1837BD4680BD6C8B00081F
:10463800808B0008948B000880B586B002AFF860C4
:10464800B9607A607B681B7843F00403DAB27B6850
:104658001A70BB681868BB6899884FF47A7300931E
:1046680001237A68FEF7CAFF0346002B14BF012313
:104678000023DBB2002B00D0EBE70520FDF7F8FBA9
:104688007B681B7823F00403DAB27B681A70BB6876
:104698001868BB6899884FF47A73009301237A6885
:1046A800FEF7ACFF0346002B14BF01230023DBB247
:1046B800002B00D0EBE70520FDF7DAFB00BF103731
:1046C800BD4680BD80B584B000AF786039603023C6
:1046D800FB731420FDF7CCFB07F10F031A4639686A
:1046E8007868FFF7A9FF07F10F031A463968786859
:1046F800FFF7A2FF07F10F031A4639687868FFF73A
:104708009BFF2023FB7307F10F031A46396878686B
:10471800FFF792FF2023FB7307F10F031A4639684E
:104728007868FFF789FFC023FB7307F10F031A4668
:1047380039687868FFF780FF0023FB7307F10F03E0
:104748001A4639687868FFF777FF8023FB7307F10B
:104758000F031A4639687868FFF76EFF0023FB736A
:1047680007F10F031A4639687868FFF765FF1023C9
:10477800FB7307F10F031A4639687868FFF75CFF87
:104788000023FB7307F10F031A4639687868FFF7AF
:1047980053FF3023FB7307F10F031A463968786813
:1047A800FFF74AFF0023FB7307F10F031A46396826
:1047B8007868FFF741FFC823FB7307F10F031A4618
:1047C80039687868FFF738FF00BF1037BD4680BDED
:1047D80080B586B000AFF860B9601346FB71FB790D
:1047E80023F00F03DBB243F00903DBB2FB7507F1DB
:1047F80017031A46B968F868FFF71EFFFB791B0113
:104808005BB243F009035BB2DBB2FB7507F1170338
:104818001A46B968F868FFF70FFF00BF1837BD469A
:1048280080BD80B586B000AFF860B9607A600023BB
:104838007B617868FBF7F4FC02467B699A420CD9E5
:104848007A687B6913441B781A46B968F868FFF7D9
:10485800BFFF7B6901337B61EBE700BF1837BD46BB
:1048680080BD80B586B000AFF860B96011461A46C1
:104878000B46FB711346BB71FB79BA689279934278
:1048880002DDBB689B79FB71BB79BA68D279934228
:1048980002DDBB68DB79BB71BB79012B01DD01232C
:1048A800BB71FB79272B01DD2723FB71BB79002B1B
:1048B80001D1FB79FB75BB79012B02D1FB79403320
:1048C800FB75BB79022B02D1FB794033FB75BB79B1
:1048D800032B02D1FB794033FB75FB7D03F070039A
:1048E800DBB263F07703DBB2BB7507F116031A4638
:1048F800B968F868FFF7A0FEFB7D1B015BB243F0C7
:1049080008035BB2DBB2BB7507F116031A46B96838
:10491800F868FFF791FE00BF1837BD4680BD00005C
:1049280090B59FB018AFFDF741FA00F0BDF800F060
:1049380001F94FF000034E4CC7E904344FF0000270
:104948004C4BD7E90401FBF72BFE03460C46C7E99D
:1049580002344FF00002484BD7E90201FCF792F805
:104968000346002B02D00123FB8027E03EA3D3E9B6
:104978000023D7E90201FCF7A3F80346002B17D060
:104988004FF000023A4BD7E90401FBF709FE034652
:104998000C4618462146FCF7DBF80346FB80FB88EB
:1049A800002B0DD01923BB80FB88013BFB80F6E769
:1049B800D7E90201FCF7CCF80346FB80FB887B8033
:1049C8002E48FFF7F9F92E4C684604F108036022D7
:1049D800194600F08BFA94E80C002A492A48FFF798
:1049E80007FA0346002B14BF01230023DBB2002B78
:1049F80002D0264800F006FB00233B80204C3B46B3
:104A08001793684604F10C035C22194600F06EFA0D
:104A180094E80E001C48FFF717FC7B7800930123ED
:104A28001B4A18491B48FFF7B9FD1B48FDF736FB21
:104A380064211948FDF7E0FB1748FDF7D7FC03464A
:104A48009AB2164B1A80154B1B881946144800F069
:104A580061FA062213490948FFF738F90722114974
:104A68000648FFF733F9E0E700000000E0FFEF40F9
:104A78000000244000406F400000F03FA8070020DD
:104A8800180000202C000020B00700209C8B000894
:104A98000C000020B8070020780700203407002009
:104AA800A88B00080010014080B590B000AF07F156
:104AB800180328220021184600F023FA3B1D002283
:104AC8001A605A609A60DA601A610223BB61012396
:104AD800BB621023FB6200237B6307F118031846AF
:104AE800FEF760F80346002B14BF01230023DBB256
:104AF800002B01D000F066F80F237B600023BB6019
:104B08000023FB6000233B6100237B613B1D0021E8
:104B18001846FEF7C7FA0346002B14BF01230023EB
:104B2800DBB2002B01D000F04DF800BF4037BD4686
:104B380080BD000080B584B000AF3B1D00221A6024
:104B48005A609A601D4B1E4A1A601C4B00229A60DC
:104B58001A4B00221A73194B00221A75174B4FF47F
:104B68006022DA61154B00225A60144B01221A6147
:104B78001248FDF79FF90346002B14BF01230023B9
:104B8800DBB2002B01D000F01DF800237B6001236D
:104B9800BB600023FB603B1D19460848FDF732FC4B
:104BA8000346002B14BF01230023DBB2002B01D0E6
:104BB80000F008F800BF1037BD4680BD7807002018
:104BC8000024014080B400AF00BFBD4680BC7047E0
:104BD80080B485B000AF154A144B9B6943F00103BC
:104BE8009361124B9B6903F00103BB60BB680F4ADA
:104BF8000E4BDB6943F08053D3610C4BDB6903F048
:104C080080537B607B680A4B5B68FB60FB6823F022
:104C1800E063FB60FB6843F00073FB60044AFB68D9
:104C2800536000BF1437BD4680BC70470010024077
:104C38000000014080B400AF00BFBD4680BC704793
:104C480080B400AFFEE780B400AFFEE780B400AFE9
:104C5800FEE780B400AFFEE780B400AF00BFBD46FA
:104C680080BC704780B400AF00BFBD4680BC7047B1
:104C780080B400AF00BFBD4680BC704780B500AFB0
:104C8800FDF7DAF800BF80BD80B483B000AF78606C
:104C98004FF06043D3F8803E03F00103002B13D09C
:104CA8004FF06043D3F8003E03F00103002B0BD014
:104CB80000E000BF4FF060431B68002BF9D04FF0B5
:104CC80060437A68D2B21A707B6818460C37BD46C2
:104CD80080BC704780B400AF01231846BD4680BC35
:104CE800704780B582B000AF7860396000F0D4F8C2
:104CF8000246162313604FF0FF3318460837BD46A7
:104D080080BD80B582B000AF78604FF0FF31786821
:104D1800FFF7E7FFFEE790B587B000AFF860B9602E
:104D28007A6000237B610AE0BC68631CBB60AFF358
:104D380000800346DBB223707B6901337B617A69AB
:104D48007B689A42F0DB7B6818461C37BD4690BDED
:104D580080B586B000AFF860B9607A6000237B61E7
:104D680009E0BB685A1CBA601B781846FFF78CFF2D
:104D78007B6901337B617A697B689A42F1DB7B68E6
:104D880018461837BD4680BD80B584B000AF78603E
:104D9800114B1B68002B02D10F4B104A1A600E4BA7
:104DA8001B68FB600C4B1A687B6813446A46934285
:104DB80007D900F071F802460C2313604FF0FF3357
:104DC80006E0054B1A687B681344034A1360FB68C6
:104DD80018461037BD4680BD100800205C0800202A
:104DE80080B483B000AF78604FF0FF3318460C37BB
:104DF800BD4680BC704780B483B000AF786039602E
:104E08003B684FF400525A60002318460C37BD46E1
:104E180080BC704780B483B000AF78600123184627
:104E28000C37BD4680BC704780B485B000AFF860D1
:104E3800B9607A60002318461437BD4680BC7047B5
:104E480080B400AF00BFBD4680BC7047002103E0BE
:104E58000B4B5B58435004310A480B4B42189A429B
:104E6800F6D30A4A02E0002342F8043B084B9A4270
:104E7800F9D3FFF7E5FF00F015F8FFF751FD70478C
:104E8800B890000800000020FC060020FC06002066
:104E98005C080020FEE70000014B1868704700BF5F
:104EA8008C00002070B500250C4E0D4CA41BA410DE
:104EB800A54209D103F026FE00250A4E0A4CA41B80
:104EC800A410A54205D170BD56F825309847013584
:104ED800EEE756F8253098470135F2E7AC90000820
:104EE800AC900008AC900008B490000810B5431EC0
:104EF8000A44914200D110BD11F8014B03F8014F4B
:104F0800F7E703460244934200D1704703F8011BB8
:104F1800F9E700000FB40A4B13B51C6824B1A36964
:104F280013B9204602F0E2F805AB049AA1682046BE
:104F3800019300F06FF802B0BDE8104004B070476C
:104F48008C00002030B5054689B008460C46FBF7B2
:104F580067F9284B0590069301231844079304AB7F
:104F68000193022304940390029325B1AB6913B90A
:104F7800284602F0BBF8AB69AC6813B9284602F0C2
:104F8800B5F81D4B9C422AD16C68636EDB0705D4CB
:104F9800A389980502D4A06D02F0B8FBB4F90C30CF
:104FA800990406D443F40053A381636E23F4005399
:104FB8006366284601AA214602F02CFA636E00288F
:104FC80014BF4FF0FF350A25DA0705D4A3899B05DE
:104FD80002D4A06D02F09BFB284609B030BD074BF8
:104FE8009C4201D1AC68D0E7054B9C4208BFEC68F5
:104FF800CBE700BFD08B0008548C0008748C0008E5
:10500800348C0008024B01461868FFF79BBF00BFAD
:105018008C0000202DE9F04FBFB00D4616461C4607
:105028001F46814602F062FB036818461193FBF79E
:10503800F7F80B90B9F1000F05D0D9F8183013B96B
:10504800484602F053F88F4B9D422CD1D9F80450B2
:105058006B6ED80705D4AB89990502D4A86D02F008
:1050680055FBB5F90C309A0406D443F40053AB81D0
:105078006B6E23F400536B66AB891B0701D52B6954
:10508800EBB92946484601F03BF8C0B16B6ED8072A
:1050980005D4AB89990502D4A86D02F038FB4FF00E
:1050A800FF330C9323E0784B9D4202D1D9F8085086
:1050B800CEE7764B9D4208BFD9F80C50C8E7AB89BC
:1050C80003F01A020A2A16D1B5F90E20002A12DBBB
:1050D8006A6ED20704D49F0502D4A86D02F017FBAC
:1050E800234632462946484600F0CAFF0C900C98E1
:1050F8003FB0BDE8F08F00232EAC21942393229378
:10510800099607930E930F93159314930C93129388
:105118001393099E334613F8012B12B1252A40F048
:105128008480099BB6EB03080DD084E80801239B13
:1051380043442393229B0133072B229377DC0834C3
:105148000C9B43440C933378002B00F03F870023DB
:105158004FF0FF3B1A469A460A2001368DF8673011
:105168000D93711C099131780691069920395829B7
:1051780000F22484DFE811F0AE0022042204B30018
:10518800220422042204220422042204B600650018
:105198002204BE00C1002204DE00E100E100E100BB
:1051A800E100E100E100E100E100E1002204220465
:1051B80022042204220422042204220422042204B7
:1051C80015012B0122042B012204220422042204AB
:1051D800F4002204220449032204220422042204A3
:1051E8002204B003220422048C0022042204220494
:1051F8002204220422042204220422042204070195
:105208006B002B012B012B01F7006B0022042204F9
:10521800FA00220429034B037F03010122049003AF
:105228002204B20322042204CC031E4672E721AAF8
:105238002946484603F0C7F9002840F0A3862EAC5B
:105248007EE701232B22099E8BE70F46FBE70BB174
:105258008DF867201AF0200F00F0A980073727F093
:10526800070707F108030893D7E90067002E77F1CD
:10527800000305DA2D23764267EB47078DF8673080
:105288000123D3E2548C0008748C0008348C000885
:105298000BB18DF86720A24B1AF0200F159300F080
:1052A8003C83073727F0070707F108030893D7E976
:1052B80000671AF0010F0BD056EA070308D0302315
:1052C8008DF868309DF818304AF0020A8DF8693078
:1052D8000223A8E2002AB6D101232022B3E74AF02C
:1052E800010AB0E73E68391D002E0D96ADDA0F466B
:1052F80076420D964AF0040AA5E709994E1C0978EA
:105308002A29069110D04FF0000B099606993039DA
:1053180009293FF62AAF00FB0B1B09990E4616F820
:10532800011B06910996F1E73968099641EAE17B84
:10533800043788E74AF0800A85E700210D9106992D
:105348000D9E303900FB06110D9109990E4616F88D
:10535800011B06910699099630390929EFD904E706
:105368004AF0080A6FE74AF0400A6CE70999097899
:105378006C2905D10999013109914AF0200A62E79F
:105388004AF0100A5FE700263B1D08933B688DF83A
:1053980067608DF890304FF0010B0A960DF1900878
:1053A80020E10BB18DF867204AF0100A52E71AF095
:1053B800100F07F1040303D03E680893F71755E769
:1053C8003E681AF0400F089318BF36B2F6E70BB1E3
:1053D8008DF86720073727F0070707F108030893B8
:1053E8003B684FF0FF320E937B680E9F0F930F9B25
:1053F800384623F0004631464A4BFBF76BFB002842
:1054080040F0F1854FF0FF32464B38463146FBF706
:1054180043FB002840F0E785129A139B0E980F99DA
:10542800FBF730FB10B12D238DF867303E4B3F4A18
:1054380006994FF0030B4729CCBF904698460026A3
:105448002AF0800A0A96CDE0BBF1FF3F26D0069BE2
:1054580023F02003472B04D1BBF1000F08BF4FF006
:10546800010B4AF4807317930F9B1F1E0E9BA8BF56
:1054780010970A93BDBF3B4603F1004310930023E6
:10548800B8BF2D231693069B23F02007462F08D07C
:10549800452F43D10BF10106022304E04FF0060B20
:1054A800DFE75E4603231FAA04921CAA03921BAAE5
:1054B80002928DE848000A9A109B484600F01CFFAB
:1054C800472F804603D11AF0010F00F0998508EBA9
:1054D8000603462F079311D198F80030302B09D1D5
:1054E800129A139B0A981099FBF7C2FA10B9C6F1E1
:1054F80001061B96079A1B9B1A440792129A139B44
:105508000A981099FBF7B4FA90B930221F9B0799B3
:1055180099420FD9591C1F911A70F7E75E46BBE7ED
:10552800E28B0008FFFFEF7FD28B0008D68B0008C4
:10553800079B1F931F9B472FA3EB0803079340F07C
:10554800FD801B9BDE1C02DB9B4580F22681069BAF
:10555800023B06931B9A9DF81810531E002BA8BFF8
:105568002B221B93BCBFC2F101032D22092B8DF8FE
:1055780074108DF8752040F3FF800A260DF1830220
:1055880093FBF6F006FB1033092803F1300302F809
:10559800013C02F1FF31034600F3E780303301F8A4
:1055A800013C023A0DF176030DF18300824219465F
:1055B800C0F0DD80079A1DABCB1A012A149303EBC8
:1055C800020B03DC1AF001030A9303D00B9B9B44E4
:1055D80000230A93169B13B12D238DF867300026FC
:1055E800DDF85CA05E453346B8BF5B4610939DF876
:1055F800673013B1109B013310931AF0020316930E
:105608001EBF109B023310931AF08403179314D112
:105618000D9B109A9F1A002F0FDDAC4B102F2360A3
:1056280000F3DE81239B67601F44229B239701338D
:10563800072B229300F3EB8108349DF8673073B190
:105648000DF16703236001236360239B01332393D8
:10565800229B0133072B229300F3E3810834169B26
:105668006BB11AAB236002236360239B023323933D
:10567800229B0133072B229300F3DD810834179B0B
:10568800802B14D10D9B109A9F1A002F0FDD904B81
:10569800102F236000F3D981239B67601F44229B4E
:1056A80023970133072B229300F3E6810834A6EBF6
:1056B8000B06002E0FDD864F102E276000F3E681C3
:1056C800229B239801336660072B06442396229376
:1056D80000F3F38108341AF4807F40F0F881239BAB
:1056E80084E800095B442393229B0133072B229310
:1056F80040F3288421AA2946484602F064FF00287E
:1057080040F040842EAC1AF0040F40F01E840C9B2D
:105718000D9A10998A42ACBF9B185B180C93239B77
:105728003BB121AA2946484602F04DFF002840F027
:1057380029840023089F22932EACEAE4069B652B5C
:105748007FF708AF069B662B27D11B9B002B1BDD21
:10575800BBF1000F02D11AF0010F02D00B9A1344CB
:105768005B441B9A9B460A9234E70A4608E712F8FC
:10577800011B03F8011B19E7302213448DF876202A
:105788008DF877301EA915E7BBF1000F02D11AF08A
:10579800010F16D00B9B0133E2E71B9A079B9A4235
:1057A80007DB1AF0010F0ED00B9B134467220692F9
:1057B800D7E7079B0B99002A0B44F7DCC2F10102DB
:1057C800F3E70123CDE71346F0E70BB18DF8672027
:1057D8001AF0200F07F1040308D00C993A68CF1784
:1057E80008463946C2E900011F4692E41AF0100F34
:1057F80003D03A680C991160F6E71AF0400FF8D018
:105808003A68BDF830101180EEE74AF0100A1AF035
:10581800200322D0073727F0070707F1080308936A
:10582800D7E90067002300228DF86720BBF1FF3F0E
:1058380000F0EB832AF080020A9256EA070240F051
:10584800EA83BBF1000F00F0AC80012B78D0022B6B
:1058580000F0938000260027E3E33A1D1AF01001B8
:10586800089202D03E680027DDE71AF04003F9D01D
:105878003E880027D6E73B1D0893302378228DF811
:105888006830144B3E68159300274AF0020A8DF8D9
:10589800692002230692C6E700263B1DBBF1FF3FA5
:1058A8000893D7F800808DF867600AD05A463146C9
:1058B800404602F0ADF9002800F09080A0EB080BFC
:1058C800C0E54046FAF7ACFC8346BBE5068C000809
:1058D800168C0008F38B00084AF0100A1AF0200F03
:1058E80009D0073727F0070707F108030893D7E916
:1058F8000067012397E73B1D1AF0100F089301D0AA
:105908003E6803E01AF0400FFAD03E880027F0E71F
:105918000BB18DF86720A34BBEE43B1D1AF0100FA6
:10592800089301D03E6803E01AF0400FFAD03E8891
:105938000027BEE4434675E3002F08BF0A2E05D2B0
:1059480030360DF1F80808F8416D86E30DF1B80816
:10595800304639460A220023FBF71AF9303208F894
:10596800012D0023304639460A22FBF711F9064675
:105978000F4656EA0703EBD16FE3002600270DF127
:10598800B808159A06F00F03D35C3A0908F8013DE8
:10599800330943EA07731E46174656EA0703F0D150
:1059A8005BE343B91AF0010F05D030230DF1F80875
:1059B80008F8413D51E30DF1B8084EE30BB18DF8FD
:1059C8006720069B002B00F0018300269DF8183005
:1059D8008DF867608DF890300897DCE4064631E56D
:1059E80010236360239B10332393229B0133072BDF
:1059F800229302DC0834103F0FE621AA29464846C4
:105A080002F0E1FD002840F0BD822EACF3E721AAA8
:105A18002946484602F0D7FD002840F0B3822EAC54
:105A28000BE621AA2946484602F0CDFD002840F0A1
:105A3800A9822EAC13E621AA2946484602F0C3FDE6
:105A4800002840F09F822EAC19E610236360239B48
:105A580010332393229B0133072B229302DC083453
:105A6800103F14E621AA2946484602F0ACFD00285A
:105A780040F088822EACF3E721AA2946484602F076
:105A8800A2FD002840F07E822EAC10E61023636051
:105A9800239B10332393229B0133072B229302DC91
:105AA8000834103E08E621AA2946484602F08BFD34
:105AB800002840F067822EACF3E721AA2946484621
:105AC80002F081FD002840F05D822EAC03E6069BC3
