:020000040800F2
:1000000000000120256C0008116A00081D6A000824
:10001000236A0008296A00082F6A0008000000000F
:10002000000000000000000000000000356A000829
:10003000416A0008000000004D6A0008596A000883
:100040006D6C00086D6C00086D6C00086D6C00082C
:100050006D6C00086D6C00086D6C00086D6C00081C
:100060006D6C00086D6C00086D6C00086D6C00080C
:100070006D6C00086D6C00086D6C00086D6C0008FC
:100080006D6C00086D6C00086D6C00086D6C0008EC
:100090006D6C00086D6C00086D6C00086D6C0008DC
:1000A0006D6C00086D6C00086D6C00086D6C0008CC
:1000B0006D6C00086D6C00086D6C0008656A0008C6
:1000C000796A00086D6C00086D6C00086D6C0008A2
:1000D0006D6C00086D6C00088D6A00086D6C00087E
:1000E0006D6C00086D6C00086D6C00086D6C00088C
:1000F0006D6C00086D6C00086D6C00086D6C00087C
:100100006D6C00086D6C00086D6C00086D6C00086B
:100110006D6C00086D6C00086D6C00086D6C00085B
:100120006D6C00086D6C00086D6C00086D6C00084B
:1001300000000000000000000000000000000000BF
:1001400000000000000000000000000000000000AF
:10015000000000000000000000000000000000009F
:10016000000000000000000000000000000000008F
:10017000000000000000000000000000000000007F
:10018000000000000000000000000000000000006F
:10019000000000000000000000000000000000005F
:1001A000000000000000000000000000000000004F
:1001B000000000000000000000000000000000003F
:1001C000000000000000000000000000000000002F
:1001D000000000000000000000000000000000001F
:0401E0005FF8E0F1F3
:1001E80010B5054C237833B9044B13B10448AFF369
:1001F80000800123237010BDD406002000000000F9
:1002080044B9000808B5034B1BB103490348AFF3D1
:10021800008008BD00000000D806002044B900088E
:10022800034613F8012B002AFBD1181A013870472E
:1002380081F0004102E000BF83F0004330B54FEA8F
:1002480041044FEA430594EA050F08BF90EA020FFC
:100258001FBF54EA000C55EA020C7FEA645C7FEA8F
:10026800655C00F0E2804FEA5454D4EB5555B8BFB2
:100278006D420CDD2C4480EA020281EA030382EA23
:10028800000083EA010180EA020281EA0303362DB5
:1002980088BF30BD11F0004F4FEA01314FF4801C88
:1002A8004CEA113102D0404261EB410113F0004F9A
:1002B8004FEA03334CEA133302D0524263EB430351
:1002C80094EA050F00F0A780A4F10104D5F1200EEF
:1002D8000DDB02FA0EFC22FA05F2801841F100014A
:1002E80003FA0EF2801843FA05F359410EE0A5F11E
:1002F80020050EF1200E012A03FA0EFC28BF4CF04F
:10030800020C43FA05F3C01851EBE37101F0004504
:1003180007D54FF0000EDCF1000C7EEB00006EEB11
:100328000101B1F5801F1BD3B1F5001F0CD349089B
:100338005FEA30004FEA3C0C04F101044FEA4452F2
:1003480012F5800F80F09A80BCF1004F08BF5FEA79
:10035800500C50F1000041EB045141EA050130BD59
:100368005FEA4C0C404141EB010111F4801FA4F1FC
:100378000104E9D191F0000F04BF01460020B1FA51
:1003880081F308BF2033A3F10B03B3F120020CDA89
:100398000C3208DD02F1140CC2F10C0201FA0CF067
:1003A80021FA02F10CE002F11402D8BFC2F1200CCC
:1003B80001FA02F120FA0CFCDCBF41EA0C01904082
:1003C800E41AA2BF01EB0451294330BD6FEA0404CB
:1003D8001F3C1CDA0C340EDC04F11404C4F12002B6
:1003E80020FA04F001FA02F340EA030021FA04F3C8
:1003F80045EA030130BDC4F10C04C4F1200220FA1F
:1004080002F001FA04F340EA0300294630BD21FA5C
:1004180004F0294630BD94F0000F83F4801306BF22
:1004280081F480110134013D4EE77FEA645C18BF16
:100438007FEA655C29D094EA050F08BF90EA020FAD
:1004480005D054EA000C04BF1946104630BD91EAA5
:10045800030F1EBF0021002030BD5FEA545C05D1A8
:100468004000494128BF41F0004130BD14F58004E7
:100478003CBF01F5801130BD01F0004545F0FE415B
:1004880041F470014FF0000030BD7FEA645C1ABF90
:10049800194610467FEA655C1CBF0B46024650EAC7
:1004A800013406BF52EA033591EA030F41F40021F3
:1004B80030BD00BF90F0000F04BF0021704730B579
:1004C8004FF4806404F132044FF000054FF000014E
:1004D80050E700BF90F0000F04BF0021704730B50F
:1004E8004FF4806404F1320410F0004548BF4042E4
:1004F8004FF000013EE700BF42004FEAE2014FEA39
:1005080031014FEA02701FBF12F07F4393F07F4F13
:1005180081F06051704792F0000F14BF93F07F4F45
:10052800704730B54FF4607401F0004521F0004188
:1005380020E700BF50EA010208BF704730B54FF00E
:1005480000050AE050EA010208BF704730B511F013
:10055800004502D5404261EB41014FF4806404F14B
:1005680032045FEA915C3FF4DCAE4FF003025FEACD
:10057800DC0C18BF03325FEADC0C18BF033202EB55
:10058800DC02C2F1200300FA03FC20FA02F001FAAF
:1005980003FE40EA0E0021FA02F11444C1E600BF4E
:1005A80070B54FF0FF0C4CF4E06C1CEA11541DBF01
:1005B8001CEA135594EA0C0F95EA0C0F00F0DEF8CC
:1005C8002C4481EA030621EA4C5123EA4C5350EAB1
:1005D800013518BF52EA033541F4801143F4801302
:1005E80038D0A0FB02CE4FF00005E1FB02E506F093
:1005F8000042E0FB03E54FF00006E1FB03569CF0E8
:10060800000F18BF4EF0010EA4F1FF04B6F5007FED
:1006180064F5407404D25FEA4E0E6D4146EB06065F
:1006280042EAC62141EA55514FEAC52040EA5E50E8
:100638004FEACE2EB4F1FD0C88BFBCF5E06F1ED892
:10064800BEF1004F08BF5FEA500E50F1000041EBC9
:10065800045170BD06F0004646EA010140EA020076
:1006680081EA0301B4EB5C04C2BFD4EB0C0541EA98
:10067800045170BD41F480114FF0000E013C00F3AD
:10068800AB8014F1360FDEBF002001F0004170BDD1
:10069800C4F10004203C35DA0C341BDC04F11404EA
:1006A800C4F1200500FA05F320FA04F001FA05F276
:1006B80040EA020001F0004221F0004110EBD37043
:1006C80021FA04F642EB06015EEA430E08BF20EA6F
:1006D800D37070BDC4F10C04C4F1200500FA04F312
:1006E80020FA05F001FA04F240EA020001F00041A4
:1006F80010EBD37041F100015EEA430E08BF20EA17
:10070800D37070BDC4F1200500FA05F24EEA020E5E
:1007180020FA04F301FA05F243EA020321FA04F08D
:1007280001F0004121FA04F220EA020000EBD37044
:100738005EEA430E08BF20EAD37070BD94F0000F44
:100748000FD101F00046400041EB010111F4801F78
:1007580008BF013CF7D041EA060195F0000F18BF29
:10076800704703F00046520043EB030313F4801F65
:1007780008BF013DF7D043EA0603704794EA0C0F1F
:100788000CEA135518BF95EA0C0F0CD050EA410635
:1007980018BF52EA4306D1D181EA030101F00041B2
:1007A8004FF0000070BD50EA410606BF10461946DA
:1007B80052EA430619D094EA0C0F02D150EA0136E6
:1007C80013D195EA0C0F05D152EA03361CBF104627
:1007D80019460AD181EA030101F0004141F0FE41C6
:1007E80041F470014FF0000070BD41F0FE4141F44A
:1007F800780170BD70B54FF0FF0C4CF4E06C1CEA4A
:1008080011541DBF1CEA135594EA0C0F95EA0C0FFE
:1008180000F0A7F8A4EB050481EA030E52EA0335B9
:100828004FEA013100F088804FEA03334FF08055DA
:1008380045EA131343EA12634FEA022245EA111507
:1008480045EA10654FEA00260EF000419D4208BFB8
:10085800964244F1FD0404F5407402D25B084FEA65
:100868003202B61A65EB03055B084FEA32024FF411
:1008780080104FF4002CB6EB020E75EB030E22BF6E
:10088800B61A754640EA0C005B084FEA3202B6EB2E
:10089800020E75EB030E22BFB61A754640EA5C00DD
:1008A8005B084FEA3202B6EB020E75EB030E22BF6D
:1008B800B61A754640EA9C005B084FEA3202B6EB6E
:1008C800020E75EB030E22BFB61A754640EADC002D
:1008D80055EA060E18D04FEA051545EA16754FEA8F
:1008E80006164FEAC30343EA52734FEAC2025FEAAD
:1008F8001C1CC0D111F4801F0BD141EA00014FF03C
:1009080000004FF0004CB6E711F4801F04BF01430C
:100918000020B4F1FD0C88BFBCF5E06F3FF6AFAE28
:10092800B5EB030C04BFB6EB020C5FEA500C50F1B8
:10093800000041EB045170BD0EF0004E4EEA11313B
:1009480014EB5C04C2BFD4EB0C0541EA045170BD42
:1009580041F480114FF0000E013C90E645EA060E86
:100968008DE60CEA135594EA0C0F08BF95EA0C0FB4
:100978003FF43BAF94EA0C0F0AD150EA01347FF4FC
:1009880034AF95EA0C0F7FF425AF104619462CE7D3
:1009980095EA0C0F06D152EA03353FF4FDAE104636
:1009A800194622E750EA410618BF52EA43067FF487
:1009B800C5AE50EA41047FF40DAF52EA43057FF417
:1009C800EBAE12E74FF0FF3C06E000BF4FF0010C22
:1009D80002E000BF4FF0010C4DF804CD4FEA410C86
:1009E8007FEA6C5C4FEA430C18BF7FEA6C5C1BD053
:1009F80001B050EA410C0CBF52EA430C91EA030FD4
:100A080002BF90EA020F0020704710F1000F91EA30
:100A1800030F58BF994208BF90422CBFD8176FEAFE
:100A2800E37040F0010070474FEA410C7FEA6C5CCC
:100A380002D150EA013C07D14FEA430C7FEA6C5CD3
:100A4800D6D152EA033CD3D05DF8040B704700BFFF
:100A58008446104662468C461946634600E000BF4D
:100A680001B5FFF7B7FF002848BF10F1000F01BD1F
:100A78004DF808EDFFF7F4FF0CBF012000205DF8EA
:100A880008FB00BF4DF808EDFFF7EAFF34BF01206F
:100A980000205DF808FB00BF4DF808EDFFF7E0FF08
:100AA80094BF012000205DF808FB00BF4DF808ED59
:100AB800FFF7CEFF94BF012000205DF808FB00BFC0
:100AC8004DF808EDFFF7C4FF34BF012000205DF8A2
:100AD80008FB00BF4FEA410C7FEA6C5C02D150EA88
:100AE800013C0AD14FEA430C7FEA6C5C02D152EA1E
:100AF800033C02D14FF0000070474FF001007047EF
:100B08004FEA410212F5001215D211D56FF478732D
:100B1800B3EB625212D94FEAC12343F0004343EAD0
:100B2800505311F0004F23FA02F018BF40427047AB
:100B38004FF00000704750EA013005D111F0004035
:100B480008BF6FF0004070474FF00000704700BFCB
:100B58004A0011D212F5001211D20DD56FF4787334
:100B6800B3EB62520ED44FEAC12343F0004343EA89
:100B7800505323FA02F070474FF00000704750EAD4
:100B8800013002D14FF0FF3070474FF0000070473E
:100B980080F0004002E000BF81F0004142001FBF2A
:100BA8005FEA410392EA030F7FEA226C7FEA236C33
:100BB8006AD04FEA1262D2EB1363C1BFD218414028
:100BC80048404140B8BF5B42192B88BF704710F0BE
:100BD800004F40F4000020F07F4018BF404211F061
:100BE800004F41F4000121F07F4118BF494292EAC9
:100BF800030F3FD0A2F1010241FA03FC10EB0C00F5
:100C0800C3F1200301FA03F100F0004302D5494281
:100C180060EB4000B0F5000F13D3B0F1807F06D32E
:100C280040084FEA310102F10102FE2A51D2B1F126
:100C3800004F40EBC25008BF20F0010040EA03001B
:100C48007047490040EB000010F4000FA2F10102C8
:100C5800EDD1B0FA80FCACF1080CB2EB0C0200FA52
:100C68000CF0AABF00EBC25052421843BCBFD040A0
:100C78001843704792F0000F81F4000106BF80F41A
:100C880000000132013BB5E74FEA41037FEA226CDD
:100C980018BF7FEA236C21D092EA030F04D092F0A8
:100CA800000F08BF0846704790EA010F1CBF0020DC
:100CB800704712F07F4F04D1400028BF40F0004039
:100CC800704712F100723CBF00F50000704700F059
:100CD800004343F0FE4040F4000070477FEA226280
:100CE80016BF08467FEA23630146420206BF5FEA51
:100CF800412390EA010F40F4800070474FF0000351
:100D080004E000BF10F0004348BF40425FEA000C17
:100D180008BF704743F0964301464FF000001CE0BF
:100D280050EA010208BF70474FF000030AE000BF15
:100D380050EA010208BF704711F0004302D5404253
:100D480061EB41015FEA010C02BF844601460020C5
:100D580043F0B64308BFA3F18053A3F50003BCFAE0
:100D68008CF2083AA3EBC25310DB01FA02FC63448D
:100D780000FA02FCC2F12002BCF1004F20FA02F294
:100D880043EB020008BF20F00100704702F1200287
:100D980001FA02FCC2F1200250EA4C0021FA02F2E8
:100DA80043EB020008BF20EADC7070474FF0FF0CED
:100DB8001CEAD0521EBF1CEAD15392EA0C0F93EAE8
:100DC8000C0F6FD01A4480EA010C400218BF5FEA8A
:100DD80041211ED04FF0006343EA501043EA5111FD
:100DE800A0FB01310CF00040B1F5000F3EBF4900F7
:100DF80041EAD3715B0040EA010062F17F02FD2AFB
:100E08001DD8B3F1004F40EBC25008BF20F00100DD
:100E1800704790F0000F0CF0004C08BF49024CEAF4
:100E2800502040EA51207F3AC2BFD2F1FF0340EA86
:100E3800C250704740F400004FF00003013A5DDCF7
:100E480012F1190FDCBF00F000407047C2F1000238
:100E5800410021FA02F1C2F1200200FA02FC5FEA25
:100E6800310040F1000053EA4C0308BF20EADC706F
:100E7800704792F0000F00F0004C02BF400010F4E1
:100E8800000F013AF9D040EA0C0093F0000F01F08E
:100E9800004C02BF490011F4000F013BF9D041EAB0
:100EA8000C018FE70CEAD15392EA0C0F18BF93EAB2
:100EB8000C0F0AD030F0004C18BF31F0004CD8D1DC
:100EC80080EA010000F00040704790F0000F17BF63
:100ED80090F0004F084691F0000F91F0004F14D0A9
:100EE80092EA0C0F01D142020FD193EA0C0F03D101
:100EF8004B0218BF084608D180EA010000F0004004
:100F080040F0FE4040F40000704740F0FE4040F4DE
:100F1800400070474FF0FF0C1CEAD0521EBF1CEA7D
:100F2800D15392EA0C0F93EA0C0F69D0A2EB03029B
:100F380080EA010C49024FEA402037D04FF0805335
:100F480043EA111143EA10130CF000408B4238BFFA
:100F58005B0042F17D024FF4000C8B4224BF5B1A08
:100F680040EA0C00B3EB510F24BFA3EB510340EA56
:100F78005C00B3EB910F24BFA3EB910340EA9C0004
:100F8800B3EBD10F24BFA3EBD10340EADC001B0174
:100F980018BF5FEA1C1CE0D1FD2A3FF650AF8B4218
:100FA80040EBC25008BF20F0010070470CF0004C25
:100FB8004CEA50207F32C2BFD2F1FF0340EAC25050
:100FC800704740F400004FF00003013A37E792F011
:100FD800000F00F0004C02BF400010F4000F013A6F
:100FE800F9D040EA0C0093F0000F01F0004C02BF6A
:100FF800490011F4000F013BF9D041EA0C0195E7D3
:101008000CEAD15392EA0C0F08D142027FF47DAF6B
:1010180093EA0C0F7FF470AF084676E793EA0C0F5B
:1010280004D14B023FF44CAF08466EE730F0004C59
:1010380018BF31F0004CCAD130F000427FF45CAFE9
:1010480031F000437FF43CAF5FE700BF53B94AB9C2
:10105800002908BF00281CBF4FF0FF314FF0FF30B8
:1010680000F07AB9ADF1080C6DE904CE00F006F88D
:10107800DDF804E0DDE9022304B070472DE9F0470C
:101088008C460E460446089D002B50D18A421746CE
:101098006CD9B2FA82FEBEF1000F0BD0CEF1200C53
:1010A80001FA0EF620FA0CFC02FA0EF74CEA060CCE
:1010B80000FA0EF43A0CBCFBF2F9BBB202FB19CCF5
:1010C80009FB03FA4FEA144848EA0C46B2450AD924
:1010D800F61909F1FF3180F02581B24540F22281ED
:1010E800A9F102093E44A6EB0A06B6FBF2F002FBA0
:1010F800106600FB03F3A4B244EA0644A34209D9EC
:10110800E41900F1FF3280F00B81A34240F208811C
:1011180002383C440021E41A40EA0940002D62D01C
:10112800002324FA0EF42C606B60BDE8F0878B4234
:1011380007D9002D55D0002185E841000846BDE8B3
:10114800F087B3FA83F1002940F08F80B34202D3CD
:10115800824200F2FC80841A66EB03060120B44642
:10116800002D40D085E81010BDE8F08712B901279E
:10117800B7FBF2F7B7FA87FEBEF1000F35D10121B0
:10118800F61B4FEA174C1FFA87F8B6FBFCF20CFB6C
:10119800126608FB02F0230C43EA0646B04207D960
:1011A800F61902F1FF3302D2B04200F2D2801A4699
:1011B800361AB6FBFCF00CFB106608FB00F8A3B26D
:1011C80043EA0644A04507D9E41900F1FF3302D2E7
:1011D800A04500F2B9801846A4EB080440EA024092
:1011E8009CE729462846BDE8F08707FA0EF7CEF1B6
:1011F800200326FA03F24FEA174CB2FBFCF11FFA60
:1012080087F80CFB112206FA0EF620FA03F301FB0D
:1012180008F933431E0C46EA0246B14500FA0EF4BB
:1012280009D9F61901F1FF3280F08C80B14540F2FE
:10123800898002393E44A6EB0906B6FBFCF00CFB9C
:10124800106200FB08F99EB246EA0246B14507D98A
:10125800F61900F1FF3371D2B1456FD902383E4417
:10126800A6EB090640EA01418FE7C1F1200722FAFF
:1012780007F88B4048EA030326FA07F44FEA134EAF
:10128800B4FBFEF91FFA83FC0EFB19448E4020FACA
:1012980007F809FB0CFA48EA06084FEA184646EA36
:1012A8000444A24502FA01F200FA01F608D9E4184A
:1012B80009F1FF3044D2A24542D9A9F102091C44E0
:1012C800A4EB0A04B4FBFEF00EFB104400FB0CFC7C
:1012D8001FFA88F848EA0444A44507D9E41800F13D
:1012E800FF3E29D2A44527D902381C4440EA0940C8
:1012F800A0FB0289A4EB0C0CCC45C246CE4615D304
:1013080012D055B1B6EB0A036CEB0E0606FA07F7D6
:10131800CB401F43CE402F606E600021BDE8F087B0
:101328001046F7E68946DEE64645EAD2B8EB020AF9
:1013380069EB030E0138E4E77046D7E718468FE7F4
:101348008146BDE7114676E702383C4444E7084643
:1013580006E7023A3E442BE7704700BF80B500AF6E
:10136800084A084B1B6843F010031360032000F081
:1013780065FD002000F008F805F0BCF900231846C8
:1013880080BD00BF0020024080B582B000AF786009
:10139800124B1A68124B1B7819464FF47A73B3FB39
:1013A800F1F3B2FBF3F3184600F07DFD0346002B82
:1013B80001D001230EE07B680F2B0AD80022796840
:1013C8004FF0FF3000F045FD064A7B6813600023AC
:1013D80000E0012318460837BD4680BD60000020A4
:1013E800040000200000002080B400AF054B1B78EB
:1013F8001A46054B1B681344034A136000BFBD46D9
:1014080080BC704704000020440F002080B400AF67
:10141800024B1B681846BD4680BC7047440F00202D
:1014280080B584B000AF7860FFF7F0FFB8607B68E4
:10143800FB60FB68B3F1FF3F05D0094B1B781A46E8
:10144800FB681344FB6000BFFFF7E0FF0246BB6880
:10145800D21AFB689A42F7D300BF1037BD4680BD49
:101468000400002080B586B000AF78600023FB75CB
:1014780000233B610023BB600023FB607B68002BDB
:1014880001D10123CEE07B689B68002B7B689B6AB7
:10149800002B09D17B680022DA627B68002283F87E
:1014A8002420786805F058F9786800F0C3FB0346F3
:1014B800FB757B689B6A03F01003002B40F0A98042
:1014C800FB7D002B40F0A5807B689B6A23F4885342
:1014D80023F0020343F002027B689A627B685A6831
:1014E8007B681B6851498B420AD17B68DB69B3F57D
:1014F800402F02D07B68DB6904E04FF4002301E051
:101508007B68DB691A437B681B7B5B001343BA6803
:101518001343BB607B689B68B3F5807F03D07B680F
:101528009B68012B02D14FF4807300E000233A69D5
:1015380013433B617B681B7D012B19D17B681B7BA7
:10154800002B09D17B689B69013B5A033B69134314
:1015580043F400633B610BE07B689B6A43F0200225
:101568007B689A627B68DB6A43F001027B68DA6217
:101578007B681B687A681268526822F469413A6984
:101588000A435A607B681A687B681B689968284B0D
:101598000B40B9680B4393607B689B68B3F5807F09
:1015A80003D07B689B68012B04D17B681B69013BD6
:1015B8001B05FB607B681B687A681268D26A22F494
:1015C8007001FA680A43DA627B681B689A68194BEB
:1015D8001340BA6893420BD17B680022DA627B68B9
:1015E8009B6A23F0030343F001027B689A6218E0C8
:1015F8007B689B6A23F0120343F010027B689A62AF
:101608007B68DB6A43F001027B68DA620123FB75C1
:1016180007E07B689B6A43F010027B689A620123AB
:10162800FB75FB7D18461837BD4680BD003C014060
:10163800FDF7E1FFFE0E1FFF80B584B000AF7860B4
:101648000023FB737B6893F82430012B01D102231C
:1016580098E07B68012283F82420786800F098FAE3
:101668000346FB73FB7B002B40F087807B689B6AFB
:1016780023F4407323F0010343F480727B689A6279
:101688007B681B68414A934205D1414B5B6803F470
:101698007023002B15D17B689B6A23F480127B682A
:1016A8009A627B681B685B6803F48063002B26D012
:1016B8007B689B6A23F4405343F480527B689A62A8
:1016C8001DE07B689B6A43F480127B689A627B68A2
:1016D8001B682F4A934204D07B681B682B4A9342AD
:1016E8000DD12B4B5B6803F48063002B07D07B681C
:1016F8009B6A23F4405343F480527B689A627B6868
:101708009B6A03F48053002B06D07B68DB6A23F0C6
:1017180006027B68DA6202E07B680022DA627B6894
:10172800002283F824207B681B686FF002021A608D
:101738007B681B689B6803F46023B3F5602F13D1A3
:101748007B681B68114A934205D1114B5B6803F40F
:101758007023002B08D17B681B687A68126892682E
:1017680042F4A0029A600CE07B681B687A681268F1
:10177800926842F480129A6003E07B68002283F842
:101788002420FB7B18461037BD4680BD0028014049
:101798000024014090B587B000AF7860396000231D
:1017A8007B610023FB6000233B61FFF72FFE78611C
:1017B8007B681B689B6803F48073002B0BD07B68E5
:1017C8009B6A43F020027B689A627B68002283F858
:1017D80024200123C8E07B681B685B6803F48073DE
:1017E800002B2AD17B681B68DB6A03F47003002B8B
:1017F80023D11AE03B68B3F1FF3F16D03B68002BBA
:1018080007D0FFF703FE02467B69D21A3B689A426B
:101818000BD97B689B6A43F004027B689A627B68F9
:10182800002283F8242003239EE07B681B681B6842
:1018380003F00203002BDDD06CE04D4B1C68022046
:1018480003F064FC0346B4FBF3F27B681B68196978
:10185800484B0B40002B18D17B681B68D968464B56
:101868000B40002B11D17B681B681969434B0B4057
:10187800002B08D17B681B68D968414B0B40002BB3
:1018880001D1142320E029231EE07B681B68196915
:101898003A4B0B40002B06D17B681B68D968384B44
:1018A8000B40002B0DD07B681B681969354B0B402A
:1018B800002B08D17B681B68D968324B0B40002B82
:1018C80001D1542300E0FC2303FB02F33B611DE03C
:1018D8003B68B3F1FF3F16D03B68002B07D0FFF7FA
:1018E80095FD02467B69D21A3B689A420BD97B6800
:1018F8009B6A43F004027B689A627B68002283F843
:101908002420032330E0FB680133FB60FA683B695D
:101918009A42DDD37B681B686FF012021A607B68FD
:101928009B6A43F400727B689A627B681B689B68B9
:1019380003F46023B3F5602F15D17B681B7B002B64
:1019480011D17B689B6A23F480727B689A627B68FA
:101958009B6A03F48053002B05D17B689B6A43F094
:1019680001027B689A62002318461C37BD4690BD69
:1019780060000020244992242449920092244912AC
:10198800922449004992240080B483B000AF786063
:101998007B681B68DB6C18460C37BD4680BC7047FB
:1019A80090B484B000AF786039600023FB730023E3
:1019B800BB607B6893F82430012B01D10223DCE063
:1019C8007B68012283F824203B685B68062B1CD8BF
:1019D8007B6819687B681B68586B3B685A681346B4
:1019E8009B001344053B1F2202FA03F3DB43184014
:1019F8003B681C683B685A6813469B001344053BC8
:101A080004FA03F303434B633CE03B685B680C2B2D
:101A18001CD87B6819687B681B68186B3B685A6818
:101A280013469B001344233B1F2202FA03F3DB43B4
:101A380018403B681C683B685A6813469B0013446F
:101A4800233B04FA03F303430B631BE07B68196829
:101A58007B681B68D86A3B685A6813469B00134426
:101A6800413B1F2202FA03F3DB4318403B681C6822
:101A78003B685A6813469B001344413B04FA03F33E
:101A88000343CB623B681B68092B1CD97B68196828
:101A98007B681B68D8683B681A6813465B00134468
:101AA8001E3B072202FA03F3DB4318403B689C689D
:101AB8003B681A6813465B0013441E3B04FA03F3A1
:101AC8000343CB6019E07B6819687B681B68186959
:101AD8003B681A6813465B001344072202FA03F3B3
:101AE800DB4318403B689C683B681A6813465B00F8
:101AF800134404FA03F303430B613B681B68102B80
:101B080003D03B681B68112B32D17B681B681D4AC8
:101B1800934225D17B681B689B6803F40003002B64
:101B280026D17B681B687A681268926842F40002C2
:101B38009A603B681B68102B1AD1134B1B68134A19
:101B4800A2FB03239A0C13469B0013445B00BB6063
:101B580002E0BB68013BBB60BB68002BF9D107E022
:101B68007B689B6A43F020027B689A620123FB73BF
:101B78007B68002283F82420FB7B18461037BD467B
:101B880090BC7047002401406000002083DE1B43A6
:101B980080B584B000AF78600023FB600023BB6091
:101BA8007B681B689B6803F00103012B39D07B68B5
:101BB8001B687A681268926842F001029A601B4BAF
:101BC8001B681B4AA2FB03239B0CBB6002E0BB689B
:101BD800013BBB60BB68002BF9D1FFF717FCF8602D
:101BE80018E0FFF713FC0246FB68D31A022B11D941
:101BF8007B689B6A43F010027B689A627B68DB6AA9
:101C080043F001027B68DA627B68002283F82420B3
:101C1800012307E07B681B689B6803F00103012B25
:101C2800DFD1002318461037BD4680BD6000002074
:101C380083DE1B4380B584B000AF78600023FB606F
:101C48007B681B689B6803F00103012B27D17B6825
:101C58001B687A681268926822F001029A60FFF79E
:101C6800D5FBF86014E0FFF7D1FB0246FB68D31AF6
:101C7800022B0DD97B689B6A43F010027B689A623D
:101C88007B68DB6A43F001027B68DA62012307E0C4
:101C98007B681B689B6803F00103012BE3D00023DA
:101CA80018461037BD4680BD80B485B000AF786057
:101CB8007B6803F00703FB600C4BDB68BB60BA680A
:101CC8004FF6FF031340BB60FB681A02BB6813435F
:101CD80043F0BF6343F40033BB60044ABB68D3607E
:101CE80000BF1437BD4680BC704700BF00ED00E060
:101CF80080B400AF044BDB681B0A03F007031846E7
:101D0800BD4680BC704700BF00ED00E080B483B0E2
:101D180000AF0346FB7197F90730002B0BDB08492E
:101D280097F907305B09FA7902F01F02012000FADF
:101D380002F241F8232000BF0C37BD4680BC704733
:101D480000E100E080B483B000AF03463960FB7166
:101D580097F90730002B0ADB0D4997F907303A68E5
:101D6800D2B21201D2B20B4483F800230AE0094927
:101D7800FB7903F00F03043B3A68D2B21201D2B2E6
:101D88000B441A7600BF0C37BD4680BC704700BFB5
:101D980000E100E000ED00E080B489B000AFF86039
:101DA800B9607A60FB6803F00703FB61FB69C3F164
:101DB8000703042B28BF0423BB61FB690433062BEC
:101DC80002D9FB69033B00E000237B610122BB6968
:101DD80002FA03F35A1EBB681A407B699A40012134
:101DE8007B6901FA03F3591E7B680B4013431846BD
:101DF8002437BD4680BC704780B582B000AF78609C
:101E08007B68013BB3F1807F01D301230FE00A4ACD
:101E18007B68013B53600F214FF0FF30FFF792FFC3
:101E2800054B00229A60044B07221A6000231846CB
:101E38000837BD4680BD00BF10E000E080B582B025
:101E480000AF78607868FFF72FFF00BF0837BD46FE
:101E580080BD80B586B000AF0346B9607A60FB7379
:101E680000237B61FFF744FF78617A68B968786975
:101E7800FFF792FF024697F90F3011461846FFF711
:101E880061FF00BF1837BD4680BD80B582B000AF86
:101E98000346FB7197F907301846FFF737FF00BF75
:101EA8000837BD4680BD80B582B000AF78607868DD
:101EB800FFF7A2FF034618460837BD4680BD80B528
:101EC80082B000AF78607B68002B01D1012314E059
:101ED8007B681B79DBB2002B05D17B6800225A7125
:101EE800786804F075FC7B6802221A717B6800220E
:101EF8001A617B6801221A71002318460837BD460B
:101F080080BD80B483B000AF786039607B685B794E
:101F1800012B01D1022341E07B6801225A717B68C1
:101F280002221A717B681B687A68126811683A681D
:101F380002F01002012000FA02F20A431A603B681C
:101F4800002B0FD17B681B681B6803F03C033C2BFC
:101F58001DD17B681B687A681268526842F00102DA
:101F68005A6014E07B681B681B6803F470123B68B6
:101F780003F010033C2101FA03F39A4207D17B686E
:101F88001B687A681268526842F002025A607B68DD
:101F980001221A717B6800225A71002318460C37F7
:101FA800BD4680BC704780B487B000AFF860B960A8
:101FB8007A603B6000237B61FB681B687B61BB68C0
:101FC800002B05D17A697B68134408337B6104E0F0
:101FD8007A697B68134414337B617B691A463B68D2
:101FE8001360002318461C37BD4680BC704780B478
:101FF80087B000AFF860B9607A60FB685B79012B45
:1020080001D102234AE0FB6801225A71FB680222CF
:102018001A71FB681B681B687B617B6803F01003FF
:1020280040F6FE7202FA03F3DB437A6913407B61E0
:10203800BB681A68BB685B6813433B617B6803F045
:1020480010033A6902FA03F37A6913437B61FB6868
:102058001B687A691A60FB681B68FA68126811685D
:102068007A6802F01002C02000FA02F2D2430A4055
:102078001A60FB681B68FA68126811687A6802F0CF
:102088001002C02000FA02F2D2430A401A60FB682C
:1020980001221A71FB6800225A71002318461C3766
:1020A800BD4680BC7047000080B584B000AF786042
:1020B8000023FB737B6893F82130022B05D07B68E3
:1020C80004229A630123FB73ECE07B681B687A683F
:1020D8001268126822F00E021A607B681B687A6820
:1020E8001268126822F001021A607B681B681A469F
:1020F8006F4B9A4263D96F4A7B681B6819466E4BCF
:10210800994259D07B681B6819466C4B994251D04B
:102118007B681B6819466A4B994248D07B681B68E4
:102128001946684B99423FD07B681B681946664B35
:10213800994236D07B681B681946644B99422DD06A
:102148007B681B6819465A4B994224D07B681B68E8
:1021580019465F4B99421CD07B681B6819465D4B3A
:10216800994214D07B681B6819465B4B99420BD087
:102178007B681B681946594B994202D14FF480532A
:102188001BE04FF4803318E04FF4807315E0102300
:1021980013E0012311E04FF080730EE04FF4801339
:1021A8000BE04FF4803308E04FF4805305E04FF420
:1021B800807302E0102300E00123536062E0484A84
:1021C8007B681B6819463C4B994259D07B681B6851
:1021D80019463A4B994251D07B681B681946384BCF
:1021E800994248D07B681B681946364B99423FD0C4
:1021F8007B681B681946344B994236D07B681B684C
:102208001946324B99422DD07B681B681946284BDA
:10221800994224D07B681B6819462D4B99421CD0E3
:102228007B681B6819462B4B994214D07B681B6846
:102238001946294B99420BD07B681B681946274BD6
:10224800994202D14FF480531BE04FF4803318E0D9
:102258004FF4807315E0102313E0012311E04FF0D1
:1022680080730EE04FF480130BE04FF4803308E0E6
:102278004FF4805305E04FF4807302E0102300E030
:10228800012353607B68012283F821207B680022A8
:1022980083F820207B685B6B002B03D07B685B6B2B
:1022A80078689847FB7B18461037BD4680BD00BF4D
:1022B8008000024000040240080002401C00024066
:1022C8003000024044000240580002406C000240C6
:1022D800080402401C040240300402404404024046
:1022E8000000024080B483B000AF78607B6893F848
:1022F800213018460C37BD4680BC704780B48BB07F
:1023080000AF7860396000237B6200233B6233E1D1
:1023180001227B6A02FA03F3FB613B681A68FB69D6
:102328001340BB61BA69FB699A4240F022813B685D
:102338005B68122B34D0122B0DD8022B2BD0022B1A
:1023480004D8002B31D0012B1CD048E0032B43D0FC
:10235800112B1BD043E08F4A934226D08D4A9342DB
:1023680006D88D4A934220D08C4A93421DD036E03D
:102378008B4A934219D08B4A934216D08A4A934289
:1023880013D02CE03B68DB683B6228E03B68DB68E5
:1023980004333B6223E03B68DB6808333B621EE0A2
:1023A8003B68DB680C333B6219E03B689B68002B99
:1023B80002D104233B6212E03B689B68012B05D1E4
:1023C80008233B627B68FA691A6108E008233B62CC
:1023D8007B68FA695A6102E000233B6200BFBB696F
:1023E800FF2B01D87B6801E07B6804337B61BB6904
:1023F800FF2B02D87B6A9B0002E07B6A083B9B00AC
:102408003B617B691A680F213B6901FA03F3DB43DF
:102418001A40396A3B6901FA03F31A437B691A6067
:102428003B685B6803F08053002B00F0A2805F4A92
:102438005E4B9B6943F0010393615C4B9B6903F01E
:102448000103BB60BB685A4A7B6A9B08023352F897
:102458002330FB607B6A03F003039B000F2202FA20
:1024680003F3DB43FA681340FB607B68514A9342ED
:102478001FD07B68504A934219D07B684F4A9342D9
:1024880013D07B684E4A93420DD07B684D4A9342E5
:1024980007D07B684C4A934201D105230AE0062302
:1024A80008E0042306E0032304E0022302E00123FA
:1024B80000E000237A6A02F0030292009340FA686F
:1024C8001343FB603A497B6A9B080233FA6841F878
:1024D80023203B685B6803F48033002B06D03B491C
:1024E8003A4B1A68BB6913430B6006E03749374B10
:1024F8001A68BB69DB4313400B603B685B6803F4F5
:102508000033002B06D03149304B5A68BB6913435E
:102518004B6006E02D492D4B5A68BB69DB431340DD
:102528004B603B685B6803F48013002B06D0274997
:10253800264B9A68BB6913438B6006E02349234BFB
:102548009A68BB69DB4313408B603B685B6803F4A4
:102558000013002B06D01D491C4BDA68BB691343D6
:10256800CB6006E01949194BDA68BB69DB431340B5
:10257800CB607B6A01337B623B681A687B6A22FA0C
:1025880003F3002B7FF4C4AE00BF2C37BD4680BCDC
:10259800704700BF00002110000011100000121049
:1025A800000031100000321000002210001002401C
:1025B8000000014000080140000C014000100140EB
:1025C8000014014000180140001C014000040140B3
:1025D80090B585B000AF78607B68002B01D10123EE
:1025E8001FE17B6893F83D30DBB2002B06D17B6896
:1025F800002283F83C20786804F026F97B682422BE
:1026080083F83D207B681B687A681268126822F09C
:1026180001021A607B681B687A681268126842F4C3
:1026280000421A607B681B687A681268126822F494
:1026380000421A6002F06EFCF8607B685B687B4AB7
:10264800934207D8FB687A4A934294BF0123002338
:10265800DBB206E0FB68774A934294BF012300236C
:10266800DBB2002B01D00123DBE0FB68724AA2FB3E
:1026780003239B0CBB607B681B687A6812685268EE
:1026880022F03F01BA680A435A607B681A687B687F
:102698001B681B6A23F03F017B685B6863488342C1
:1026A80002D8BB68013309E0BB684FF4967000FBA1
:1026B80003F36248A0FB03039B0901330B43136236
:1026C8007B6818687B681B68DB6923F44F4222F03B
:1026D800FF027B685B6855498B420DD8FB68591E21
:1026E8007B685B685B00B1FBF3F30133C3F30B0357
:1026F800042B38BF04234FE07B689B68002B11D163
:10270800FB685C1E7B6859680B465B000B44B4FB96
:10271800F3F30133C3F30B03002B0CBF0123002396
:10272800DBB212E0FB685C1E7B6859680B469B00B5
:102738000B4499000B44B4FBF3F30133C3F30B03CD
:10274800002B0CBF01230023DBB2002B01D0012397
:1027580022E07B689B68002B0ED1FB685C1E7B68BF
:1027680059680B465B000B44B4FBF3F30133C3F326
:102778000B0343F400430FE0FB685C1E7B68596859
:102788000B469B000B4499000B44B4FBF3F3013355
:10279800C3F30B0343F440431343C3617B681B68D3
:1027A8007A681268126822F0C0017A68D0697A687B
:1027B800126A02430A431A607B681A687B681B68BE
:1027C8009B6823F4034323F0FF0379680869796859
:1027D800C96801430B4393607B681B687A68126879
:1027E800D26822F0FF017A6850697A6892690243D8
:1027F8000A43DA607B681B687A681268126842F0DC
:1028080001021A607B6800221A647B68202283F820
:102818003D207B6800221A637B68002283F83E20F3
:10282800002318461437BD4690BD00BFA08601009E
:102838007F841E00FF083D0083DE1B43D34D6210DA
:1028480080B588B002AFF8607A601A460B467B8183
:1028580013463B81FEF7DAFD7861FB6893F83D305B
:10286800DBB2202B40F0E0807B6900931923012222
:102878007049F86801F0A6FD0346002B01D0022339
:10288800D3E0FB6893F83C30012B01D10223CCE064
:10289800FB68012283F83C20FB681B681B6803F077
:1028A8000103012B07D0FB681B68FA6812681268DD
:1028B80042F001021A60FB681B68FA681268126825
:1028C80022F400621A60FB68212283F83D20FB682D
:1028D800102283F83E20FB6800221A64FB687A689D
:1028E8005A62FB683A895A85FB685B8D9AB2FB6825
:1028F8001A85FB68504ADA6279897B693A6AF8680E
:1029080001F036FC0346002B01D001238DE00023A3
:102918003B61FB681B685B693B61FB681B689B69E3
:102928003B613B6966E07A69396AF86801F020FE24
:102938000346002B0DD0FB681B6C042B07D1FB68EA
:102948001B68FA681268126842F400721A60012360
:102958006BE0FB681B68FA68526A12781A61FB68B8
:102968005B6A5A1CFB685A62FB685B8D9BB2013B31
:102978009AB2FB685A85FB681B8D013B9AB2FB68CB
:102988001A85FB681B685B6903F00403042B1BD1E1
:10299800FB681B8D002B17D0FB681B68FA68526A0E
:1029A80012781A61FB685B6A5A1CFB685A62FB68FA
:1029B8005B8D9BB2013B9AB2FB685A85FB681B8D05
:1029C800013B9AB2FB681A857A69396AF86801F09E
:1029D80010FE0346002B0DD0FB681B6C042B07D19F
:1029E800FB681B68FA681268126842F400721A6081
:1029F80001231AE0FB681B8D002B94D1FB681B6830
:102A0800FA681268126842F400721A60FB682022A1
:102A180083F83D20FB68002283F83E20FB680022F3
:102A280083F83C20002300E0022318461837BD46EF
:102A380080BD00BF020010000000FFFF80B588B015
:102A480000AF78600023BB617B681B685B687B61B3
:102A58007B68DB6A3B617B6893F83E30FB737B687D
:102A680093F83D30BB73FB7B102B03D0FB7B402BD3
:102A780040F0AD807B681B689B69BB617B681B6805
:102A88005B69FB61FB6903F00103002B0DD13B6916
:102A9800B3F52A0F03D03B69B3F12A4F01D10123C3
:102AA80000E00023012B00F01081FB6903F0010313
:102AB800002B0BD07B6903F40073002B06D07868D9
:102AC80001F038FE786800F03BFD7FE0FB6903F019
:102AD8000803002B08D07B6903F40073002B03D094
:102AE800786800F0B0FD71E0FB6903F00203002B89
:102AF80008D07B6903F40073002B03D0786800F0DA
:102B0800CBFD63E0BB6903F00403002B32D07B6884
:102B18001B685B6803F40063B3F5006F00F0D780AF
:102B2800FB6903F08003002B0DD07B6903F48063FD
:102B3800002B08D0FB6903F00403002B03D178684D
:102B480000F0D0F942E0FB6903F00403002B00F029
:102B5800BE807B6903F40073002B00F0B880FB7B18
:102B6800102B03D1786800F059FAB0E0786800F0CB
:102B7800BDFAACE07B681B685B6803F40063B3F5DF
:102B8800006F00F0A480FB6903F04003002B0DD018
:102B98007B6903F48063002B08D0FB6903F004030E
:102BA800002B03D1786800F030FB0FE0FB6903F0DD
:102BB8000403002B00F08B807B6903F40073002B67
:102BC80000F08580786800F0D1FB80E07FE07B68CA
:102BD8001B6C002B04D07B681B685B69FB6107E0FA
:102BE8007B681B689B69BB617B681B685B69FB61D1
:102BF800FB6903F00203002B11D07B6903F4007317
:102C0800002B0CD07B681B6C002B03D07B681B68E7
:102C18009B69BB61B969786800F095FF5AE0FB6968
:102C280003F01003002B08D07B6903F40073002B1A
:102C380003D0786800F0CAFF4CE0BB7B212B02D0A0
:102C4800BB7B292B20D1FB6903F08003002B0DD01F
:102C58007B6903F48063002B08D0FB6903F004034D
:102C6800002B03D1786800F0B2FE32E0FB6903F074
:102C78000403002B2DD07B6903F40073002B28D0AC
:102C8800786800F0E1FE24E0FB6903F04003002BC4
:102C98000DD07B6903F48063002B08D0FB6903F037
:102CA8000403002B03D1786800F0EEFE12E0FB6904
:102CB80003F00403002B0DD07B6903F40073002B91
:102CC80008D0786800F01EFF04E000BF02E000BFF3
:102CD80000E000BF2037BD4680BD80B58AB000AF98
:102CE80078607B681B685B693B627B681B685B6814
:102CF800FB6100237B627B6893F83E30FB763B6A7E
:102D080003F48073002B15D0FB6903F48073002B48
:102D180010D07B6A43F001037B627B681B686FF409
:102D280080725A617B681B687A681268126842F47C
:102D380000421A603B6A03F40073002B0DD0FB6954
:102D480003F48073002B08D07B6A43F002037B6294
:102D58007B681B686FF400725A613B6A03F48063F6
:102D6800002B3ED0FB6903F48073002B39D0FB7E27
:102D7800BB767B685B8D9BB27B617B6893F83D304B
:102D8800FB747B681B6BFB60BB7E202B12D17B69BD
:102D9800002B0FD1FB7C212B08D0FB7C292B05D0E5
:102DA800FB7C282B06D1FB68212B03D1786801F026
:102DB8003DF816E07B681B686FF480625A617B6A95
:102DC80043F004037B62FB7E102B02D0FB7E402B7A
:102DD80007D17B681B687A681268126842F400722F
:102DE8001A603B6A03F40063002B0DD0FB6903F4FF
:102DF8008073002B08D07B6A43F008037B627B68F2
:102E08001B686FF400625A617B6A002B08D07B68EC
:102E18001A6C7B6A1A437B681A64786801F076F842
:102E280000BF2837BD4680BD80B483B000AF78604E
:102E380000BF0C37BD4680BC704780B483B000AF7C
:102E4800786000BF0C37BD4680BC704780B483B043
:102E580000AF786000BF0C37BD4680BC704780B4B7
:102E680083B000AF786000BF0C37BD4680BC7047A8
:102E780080B483B000AF78600B46FB7013463B808C
:102E880000BF0C37BD4680BC704780B483B000AF2C
:102E9800786000BF0C37BD4680BC704780B483B0F3
:102EA80000AF786000BF0C37BD4680BC704780B467
:102EB80083B000AF786000BF0C37BD4680BC704758
:102EC80080B483B000AF786000BF0C37BD4680BCCB
:102ED800704780B483B000AF786000BF0C37BD4640
:102EE80080BC704780B584B000AF78607B6893F889
:102EF8003D30FB737B6893F83E30BB737B68DB6ABD
:102F0800BB607B681B8D002B50D1FB7B212B4DD1E7
:102F1800BB68082B1DD0BB68202B1AD0BB6813F5E3
:102F2800803F16D07B681B687A681268526822F462
:102F3800E0625A607B6811221A637B68002283F87A
:102F48003E207B68202283F83D207868FFF76CFFDD
:102F580060E07B681B687A681268526822F4E06255
:102F68005A607B681B687A681268126842F40072BB
:102F78001A607B6800221A637B68202283F83D2050
:102F88007B6893F83E30DBB2402B07D17B68002288
:102F980083F83E207868FFF781FF3BE07B680022DA
:102FA80083F83E207868FFF73FFF33E0FB7B212B57
:102FB80005D0BB7B402B2DD1FB7B222B2AD17B68F4
:102FC8005B8D9BB2002B08D17B681B687A681268FE
:102FD800526822F480625A601CE07B6893F83E30A5
:102FE800DBB2402B03D1786800F080F812E07B68F0
:102FF8001B687A68526A12781A617B685B6A5A1C85
:103008007B685A627B685B8D9BB2013B9AB27B6896
:103018005A85FFE700BF1037BD4680BD80B584B034
:1030280000AF78607B68DB6AFB607B6893F83D30B3
:10303800DBB2212B56D17B685B8D9BB2002B12D063
:103048007B681B687A68526A12781A617B685B6AC7
:103058005A1C7B685A627B685B8D9BB2013B9AB2B3
:103068007B685A853EE0FB68082B1DD0FB68202B47
:103078001AD0FB6813F5803F16D07B681B687A6806
:103088001268526822F4E0625A607B6811221A635F
:103098007B68002283F83E207B68202283F83D204D
:1030A8007868FFF7C1FE1DE07B681B687A681268C4
:1030B800526822F4E0625A607B681B687A6812687A
:1030C800126842F400721A607B6800221A637B68F7
:1030D800202283F83D207B68002283F83E20786810
:1030E800FFF7A2FE00BF1037BD4680BD80B584B093
:1030F80000AF78607B6893F83D30FB737B681B6D8D
:10310800002B1DD17B68DB6C012B0BD17B681B6806
:103118007A68926CD2B21A617B681B6D9A1C7B68C4
:103128001A656EE07B681B687A68926C92B212121C
:10313800D2B21A617B681B6D5A1C7B681A6560E005
:103148007B681B6D012B0BD17B681B687A68926CBE
:10315800D2B21A617B681B6D5A1C7B681A6550E0F5
:103168007B681B6D022B4CD1FB7B222B08D17B6823
:103178001B687A681268126842F480721A6040E02C
:103188007B685B8D9BB2002B15D0FB7B212B12D16A
:103198007B681B687A68526A12781A617B685B6A76
:1031A8005A1C7B685A627B685B8D9BB2013B9AB262
:1031B8007B685A8525E07B685B8D9BB2002B20D10C
:1031C800FB7B212B1DD17B681B687A6812685268CB
:1031D80022F4E0625A607B681B687A681268126899
:1031E80042F400721A607B6800221A637B6820220E
:1031F80083F83D207B68002283F83E207868FFF73B
:103208004DFE00BF1037BD4680BD80B584B000AF0D
:1032180078607B6893F83D30DBB2222B40F0A280C7
:103228007B685B8D9BB2FB60FB68032B21D97B68B5
:103238005B6A7A6812681269D2B21A707B685B6A34
:103248005A1C7B685A627B685B8D9BB2013B9AB2C1
:103258007B685A857B685B8D9BB2032B40F082802C
:103268007B681B687A681268526822F480625A6028
:1032780078E07B68DB6A022B74D0FB68012B02D0F4
:10328800FB68002B6ED1786801F0F4F90346002B37
:1032980042D17B681B687A681268126822F48062DF
:1032A8001A607B681B687A681268526822F4E062C8
:1032B8005A607B685B6A7A6812681269D2B21A70BF
:1032C8007B685B6A5A1C7B685A627B685B8D9BB221
:1032D800013B9AB27B685A857B68202283F83D209F
:1032E8007B6893F83E30DBB2402B0AD17B68002222
:1032F80083F83E207B6800221A637868FFF7D7FDC1
:1033080030E07B68002283F83E207B6812221A6333
:103318007868FFF792FD25E07B681B687A68126879
:10332800526822F4E0625A607B685B6A7A681268C5
:103338001269D2B21A707B685B6A5A1C7B685A623F
:103348007B685B8D9BB2013B9AB27B685A857B6830
:10335800202283F83D207B68002283F83E2078688D
:10336800FFF7AEFD00BF1037BD4680BD80B584B005
:1033780000AF78607B68DB6AFB607B685B8D9BB223
:10338800042B1BD17B681B687A681268526822F488
:1033980080625A607B685B6A7A6812681269D2B286
:1033A8001A707B685B6A5A1C7B685A627B685B8D03
:1033B8009BB2013B9AB27B685A85BDE07B685B8D06
:1033C8009BB2032B29D17B681B687A681268526804
:1033D80022F480625A60FB68042B0AD0FB68022B37
:1033E80007D07B681B687A681268126822F48062CA
:1033F8001A607B685B6A7A6812681269D2B21A70BE
:103408007B685B6A5A1C7B685A627B685B8D9BB2DF
:10341800013B9AB27B685A858EE07B685B8D9BB2D4
:10342800022B76D1FB68012B02D0FB68102B08D148
:103438007B681B687A681268126822F480621A60D6
:1034480019E0FB68042B02D0FB68022B08D17B68CB
:103458001B687A681268126842F480621A600AE08F
:10346800FB68102B07D07B681B687A6812681268A3
:1034780042F400721A607B685B6A7A6812681269A3
:10348800D2B21A707B685B6A5A1C7B685A627B6886
:103498005B8D9BB2013B9AB27B685A857B685B6AFD
:1034A8007A6812681269D2B21A707B685B6A5A1C11
:1034B8007B685A627B685B8D9BB2013B9AB27B68E2
:1034C8005A857B681B687A681268526822F44072D1
:1034D8005A607B68202283F83D207B6893F83E3051
:1034E800DBB2402B0AD17B68002283F83E207B6840
:1034F80000221A637868FFF7DAFC1DE07B68002277
:1035080083F83E207B6812221A637868FFF795FCDF
:1035180012E07B685B6A7A6812681269D2B21A7024
:103528007B685B6A5A1C7B685A627B685B8D9BB2BE
:10353800013B9AB27B685A8500BF1037BD4680BDF3
:1035480080B483B000AF78607B6893F83E30DBB21C
:10355800402B16D17B681B6D002B08D17B681B683C
:103568007A68526CD2B202F0FE021A6166E07B6899
:103578001B687A68526CD2B242F00102D2B21A6168
:103588005CE07B681B69B3F5804F32D17B6893F8A8
:103598003D30DBB2212B08D17B681B687A68526CFE
:1035A800D2B202F0FE021A6108E07B681B687A68F2
:1035B800526CD2B242F00102D2B21A617B685B6BE4
:1035C800002B04D07B685B6B9B6A002B08D17B685F
:1035D8009B6B002B32D07B689B6B9B6A002B2DD09A
:1035E8007B681B687A681268526842F400625A6005
:1035F80024E07B681B6D002B0ED17B681B687A6802
:10360800526C92B2D211D2B202F00602D2B262F079
:103618000F02D2B21A6111E07B681B6D012B0DD12C
:103628007B681B687A68526C92B2D211D2B202F0EF
:103638000602D2B262F00E02D2B21A6100BF0C3793
:10364800BD4680BC704780B483B000AF78607B68AB
:103658001B687A68526CD2B21A617B685B6B002B6C
:1036680003D17B689B6B002B11D07B685B6B9B6ADB
:10367800002B04D17B689B6B9B6A002B07D07B686F
:103688001B687A681268526842F400625A6000BF88
:103698000C37BD4680BC704780B491B000AF7860ED
:1036A8007B6893F83E3087F83F307B68DB6ABB6302
:1036B8007B681B6B7B637B6893F83D30DBB2222B06
:1036C80040F074817B681B6D002B0FD197F83F3059
:1036D800402B0BD100233B637B681B685B693B6312
:1036E8007B681B689B693B633B6B6BE17B681B6D6D
:1036F800002B1DD17B681B69B3F5404F18D10023FF
:10370800FB627B681B685B69FB627B681B689B6963
:10371800FB62FB6A7B681B687A681268126842F46D
:1037280080721A607B681B6D5A1C7B681A6549E1B8
:103738007B685B8D9BB2002B13D10023BB627B6837
:103748001B685B69BB627B681B689B69BB62BB6A61
:103758007B681B687A681268126842F400721A6003
:1037680020E17B685B8D9BB2012B40F08A80BB6BAC
:1037780013F5803F37D17B681B687A681268126836
:1037880022F480621A607B681B685B6803F400633C
:10379800B3F5006F13D17B681B687A6812681268EA
:1037A80022F480621A6000237B627B681B685B6975
:1037B8007B627B681B689B697B627B6AF2E0002303
:1037C8003B627B681B685B693B627B681B689B6923
:1037D8003B623B6A7B681B687A681268126842F42D
:1037E80000721A60DEE0BB6B082B2ED0BB6B202B5F
:1037F8002BD07B6B122B02D1BB6B012B25D1BB6B62
:10380800042B0ED0BB6B022B0BD0BB6B102B08D03C
:103818007B681B687A681268126822F480621A60F2
:1038280007E07B681B687A681268126842F4806255
:103838001A600023FB617B681B685B69FB617B681E
:103848001B689B69FB61FB69ACE07B681B687A6855
:103858001268126822F480621A600023BB617B68D8
:103868001B685B69BB617B681B689B69BB61BB6943
:103878007B681B687A681268126842F400721A60E2
:1038880090E07B685B8D9BB2022B58D1BB6B042BFD
:1038980021D0BB6B022B1ED0BB6B102B1BD07B68BF
:1038A8001B687A681268126842F400621A60002382
:1038B8007B617B681B685B697B617B681B689B69B4
:1038C8007B617B697B681B687A681268126822F4DE
:1038D80080621A6012E07B681B687A681268126856
:1038E80042F480621A6000233B617B681B685B6955
:1038F8003B617B681B689B693B613B697B681B6814
:103908005B6803F40063B3F5006F4BD1BB6B13F531
:10391800803F0BD0BB6B012B08D0BB6B082B05D0AD
:10392800BB6B102B02D0BB6B202B3BD17B681B6879
:103938007A681268526842F480525A6032E07B68B2
:103948001B687A681268126842F480621A607B68A1
:103958001B685B6803F40063B3F5006F17D1BB6B9A
:1039680013F5803F0BD0BB6B012B08D0BB6B082B2A
:1039780005D0BB6B102B02D0BB6B202B07D17B680B
:103988001B687A681268526842F480525A600023B1
:10399800FB607B681B685B69FB607B681B689B69D5
:1039A800FB60FB687B6800221A650BE00023BB60A4
:1039B8007B681B685B69BB607B681B689B69BB6035
:1039C800BB68FFE700BF4437BD4680BC704780B581
:1039D80084B000AF78607B6893F83D30FB737B68F8
:1039E8005B8D9BB2002B2BD07B681B687A68526A70
:1039F80012781A617B685B6A5A1C7B685A627B681A
:103A08005B8D9BB2013B9AB27B685A857B685B8D64
:103A18009BB2002B14D1FB7B292B11D17B681B682F
:103A28007A681268526822F480625A607B682122A0
:103A38001A637B68282283F83D207868FFF706FA26
:103A480000BF1037BD4680BD80B483B000AF78603A
:103A58007B685B8D9BB2002B11D07B681B687A68F2
:103A6800526A12781A617B685B6A5A1C7B685A62D0
:103A78007B685B8D9BB2013B9AB27B685A8500BF1D
:103A88000C37BD4680BC704780B584B000AF786005
:103A98007B6893F83D30FB737B685B8D9BB2002B92
:103AA8002CD07B685B6A7A6812681269D2B21A7085
:103AB8007B685B6A5A1C7B685A627B685B8D9BB229
:103AC800013B9AB27B685A857B685B8D9BB2002B61
:103AD80014D1FB7B2A2B11D17B681B687A6812688A
:103AE800526822F480625A607B6822221A637B68DB
:103AF800282283F83D207868FFF7B1F900BF103716
:103B0800BD4680BD80B483B000AF78607B685B8DB4
:103B18009BB2002B12D07B685B6A7A6812681269C4
:103B2800D2B21A707B685B6A5A1C7B685A627B68DF
:103B38005B8D9BB2013B9AB27B685A8500BF0C37FC
:103B4800BD4680BC704780B584B000AF78603960EE
:103B58000023FB737B6893F83D30DBB203F0280346
:103B6800282B25D17B681B687A681268526822F472
:103B780080625A603B6803F00403002B01D10123E3
:103B8800FB733B6803F08003002B03D17B68DB6881
:103B9800BB8102E07B689B69BB817B68002283F85C
:103BA8003C20BA89FB7B19467868FFF761F908E081
:103BB8007B681B686FF002025A617B68002283F8F9
:103BC8003C2000BF1037BD4680BD000080B584B0E2
:103BD80000AF78607B6893F83D30FB737B681B68A7
:103BE8007A681268526822F4E0625A600023BB6067
:103BF8007B681B685B69BB607B681B687A681268B6
:103C0800126842F001021A60BB687B681B687A6818
:103C18001268126822F480621A607B681B685B680D
:103C280003F40063B3F5006F72D1FB7B222B02D043
:103C3800FB7B2A2B35D17B689B6B1B685B689AB230
:103C48007B685A857B685B8D9BB2002B05D07B68AF
:103C58001B6C43F004027B681A647B681B687A68F3
:103C68001268526822F400625A607B689B6B18469F
:103C7800FEF738FB0346012B49D07B689B6B694AEA
:103C88005A637B689B6B1846FEF70EFA0346002BB7
:103C98003DD07B689B6B5B6B7A68926B104698474C
:103CA80035E07B685B6B1B685B689AB27B685A85FA
:103CB8007B685B8D9BB2002B05D07B681B6C43F047
:103CC80004027B681A647B681B687A681268526809
:103CD80022F400625A607B685B6B1846FEF702FBB1
:103CE8000346012B14D07B685B6B4E4A5A637B6892
:103CF8005B6B1846FEF7D8F90346002B08D07B68A3
:103D08005B6B5B6B7A68526B1046984700E000BFAC
:103D18007B685B8D9BB2002B3ED07B681B685B6920
:103D280003F00403042B12D17B685B6A7A6812687B
:103D38001269D2B21A707B685B6A5A1C7B685A6235
:103D48007B685B8D9BB2013B9AB27B685A857B6826
:103D58001B685B6903F04003402B12D17B685B6AE8
:103D68007A6812681269D2B21A707B685B6A5A1C48
:103D78007B685A627B685B8D9BB2013B9AB27B6819
:103D88005A857B685B8D9BB2002B05D07B681B6CCA
:103D980043F004027B681A647B681B6C002B03D019
:103DA800786800F0B3F839E0FB7B2A2B09D17B68EF
:103DB80000221A637B68282283F83D207868FFF781
:103DC8004EF87B6893F83D30DBB2282B11D17B6825
:103DD800154ADA627B6800221A637B68202283F81E
:103DE8003D207B68002283F83E207868FFF74DF875
:103DF80014E07B681B6B222B02D0FB7B222B0DD19E
:103E08007B6800221A637B68202283F83D207B6848
:103E1800002283F83E207868FFF721F800BF1037AA
:103E2800BD4680BD7D4200080000FFFF80B584B01C
:103E380000AF78607B6893F83D30FB737B68DB6A82
:103E4800BB60BB68082B02D0BB68202B29D1FB7B49
:103E5800282B26D17B682C4ADA627B681B687A6833
:103E68001268526822F4E0625A607B681B686FF43B
:103E780080625A617B681B687A681268126822F44B
:103E880080621A607B6800221A637B68202283F8AC
:103E98003D207B68002283F83E207868FEF7F5FF16
:103EA8002EE0FB7B212B26D17B68174ADA627B68E0
:103EB80021221A637B68202283F83D207B68002238
:103EC80083F83E207B681B687A681268526822F47F
:103ED800E0625A607B681B686FF480625A617B6895
:103EE8001B687A681268126822F480621A6078681F
:103EF800FEF7ACFF04E07B681B686FF480625A61D0
:103F080000BF1037BD4680BD0000FFFF80B584B0FC
:103F180000AF78607B6893F83D30FB737B6893F85B
:103F28003E30BB73BB7B102B02D0BB7B402B0AD12E
:103F3800FB7B222B07D17B681B687A6812681268A2
:103F480022F400621A60FB7B03F02803282B07D1B8
:103F58007B6800221A637B68282283F83D2015E0DD
:103F68007B681B685B6803F40063B3F5006F0AD0D5
:103F7800FB7B602B07D07B68202283F83D207B6881
:103F8800002283F83E207B6800221A637B681B6846
:103F98005B6803F40063B3F5006F61D17B681B684D
:103FA8007A681268526822F400625A607B685B6B18
:103FB80093F82130012B20D07B685B6B6A4A5A63E7
:103FC8007B685B6B1846FEF76FF80346002B00F022
:103FD80089807B681B687A681268126822F001027F
:103FE8001A607B68202283F83D207B685B6B5B6BE3
:103FF8007A68526B1046984774E07B689B6B5A4A04
:104008005A637B689B6B1846FEF74EF80346002BF5
:1040180068D07B681B685B6903F04003402B0BD1B9
:104028007B685B6A7A6812681269D2B21A707B6818
:104038005B6A5A1C7B685A627B681B687A681268DC
:10404800126822F001021A607B68202283F83D2062
:104058007B689B6B5B6B7A68926B1046984741E074
:104068007B6893F83D30DBB2602B25D17B6820223A
:1040780083F83D207B6800221A647B681B685B69B3
:1040880003F04003402B0BD17B685B6A7A681268A7
:104098001269D2B21A707B685B6A5A1C7B685A62D2
:1040A8007B681B687A681268126822F001021A603D
:1040B8007868FEF70EFF15E07B681B685B6903F004
:1040C8004003402B0BD17B685B6A7A6812681269DF
:1040D800D2B21A707B685B6A5A1C7B685A6278682D
:1040E800FEF7EEFE7B681B6CBB60BB6803F0010348
:1040F800002B0ED1BB6803F00203002B09D1BB686B
:1041080003F00403002B04D1BB6803F00803002B61
:1041180007D07B681B687A681268526822F4E062EC
:104128005A607B6893F83D30FB737B681B6C03F027
:104138000403042B13D1FB7B282B10D17B680B4A7B
:10414800DA627B6800221A637B68202283F83D20AC
:104158007B68002283F83E207868FEF796FE00BF51
:104168001037BD4680BD00BF7D4200080000FFFF3C
:1041780080B588B002AFF8607A603B600B467B81FF
:10418800FB68DB6A7B617B69082B06D07B69012BA6
:1041980003D07B6913F5803F08D1FB681B68FA6878
:1041A8001268126842F480721A600BE0FB681B6B9D
:1041B800122B07D1FB681B68FA681268126842F470
:1041C80080721A603B6800937B6800224FF00111EF
:1041D800F86800F0F7F80346002B0DD0FB681B6861
:1041E8001B6803F48073B3F5807F03D1FB684FF439
:1041F80000721A64032334E0FB681B69B3F5804F2F
:1042080007D1FB681B687A89D2B202F0FE021A61F4
:104218001BE0FB681B687A89D211D2B202F0060251
:10422800D2B262F00F02D2B21A613B687A680F49C3
:10423800F86800F01EF90346002B01D0012310E0B6
:10424800FB681B687A89D2B21A613B687A680849A8
:10425800F86800F00EF90346002B01D0012300E0B6
:10426800002318461837BD4680BD00BF080001006E
:104278000200010080B586B000AF78600023FB60C3
:104288007B685B6A7B617B6993F83D30FB744B4BC1
:104298001B68DB084A4AA2FB03231A0A13469B0041
:1042A8001344DA00D31AFB60FB68002B06D17B6944
:1042B8001B6C43F020027B691A640AE0FB68013B2F
:1042C800FB607B691B681B6803F40073B3F5007F10
:1042D800EAD07B695B6B002B03D07B695B6B0022A8
:1042E8009A627B699B6B002B03D07B699B6B0022D6
:1042F8009A627B691B687A691268126822F4806284
:104308001A607B6900225A857B695B6B002B03D09E
:104318007B695B6B00225A637B699B6B002B03D024
:104328007B699B6B00225A637B691B687A691268F8
:10433800126822F001021A607B6993F83D30DBB203
:10434800602B0ED17B69202283F83D207B690022F7
:1043580083F83E207B6900221A647869FEF7B9FD6C
:1043680027E0FB7C03F02803282B17D17B691B6807
:104378007A691268126842F001021A607B691B6848
:104388007A691268126842F480621A607B690022B6
:104398001A637B69282283F83D2007E07B69202285
:1043A80083F83D207B69002283F83E207869FEF778
:1043B80087FD00BF1837BD4680BD00BF60000020E4
:1043C80089B5F81480B584B000AFF860B9603B6077
:1043D8001346FB7125E03B68B3F1FF3F21D0FDF7A1
:1043E80015F80246BB69D21A3B689A4202D83B6864
:1043F800002B16D1FB6800221A63FB68202283F881
:104408003D20FB68002283F83E20FB681B6C43F0CC
:104418002002FB681A64FB68002283F83C20012311
:1044280023E0BB681B0CDBB2012B0DD1FB681B68BA
:104438005B69DA43BB6813409BB2002B0CBF0123B6
:104448000023DBB21A460CE0FB681B689B69DA4361
:10445800BB6813409BB2002B0CBF01230023DBB2C7
:104468001A46FB799A42B6D0002318461037BD4643
:1044780080BD80B584B000AFF860B9607A603B60F9
:1044880051E0FB681B685B6903F48063B3F5806FD8
:1044980023D1FB681B68FA681268126842F400723C
:1044A8001A60FB681B686FF480625A61FB6800221F
:1044B8001A63FB68202283F83D20FB68002283F8FA
:1044C8003E20FB681B6C43F00402FB681A64FB681F
:1044D800002283F83C20012346E07B68B3F1FF3FCC
:1044E80021D0FCF793FF02463B68D21A7B689A42B8
:1044F80002D87B68002B16D1FB6800221A63FB6880
:10450800202283F83D20FB68002283F83E20FB68C8
:104518001B6C43F02002FB681A64FB68002283F8D6
:104528003C20012320E0BB681B0CDBB2012B0CD123
:10453800FB681B685B69DA43BB6813409BB2002BBE
:1045480014BF01230023DBB20BE0FB681B689B69E7
:10455800DA43BB6813409BB2002B14BF012300232E
:10456800DBB2002B8DD1002318461037BD4680BD25
:1045780080B584B000AFF860B9607A602DE0F86863
:1045880000F0AAF80346002B01D001232DE0BB68F8
:10459800B3F1FF3F21D0FCF739FF02467B68D21AFE
:1045A800BB689A4202D8BB68002B16D1FB68002270
:1045B8001A63FB68202283F83D20FB68002283F8F9
:1045C8003E20FB681B6C43F02002FB681A64FB6802
:1045D800002283F83C20012307E0FB681B685B6925
:1045E80003F08003802BCAD1002318461037BD463C
:1045F80080BD80B584B000AFF860B9607A602DE006
:10460800F86800F069F80346002B01D001232DE07B
:10461800BB68B3F1FF3F21D0FCF7F8FE02467B6888
:10462800D21ABB689A4202D8BB68002B16D1FB6825
:1046380000221A63FB68202283F83D20FB680022D1
:1046480083F83E20FB681B6C43F02002FB681A6469
:10465800FB68002283F83C20012307E0FB681B6805
:104668005B6903F00403042BCAD1002318461037F2
:10467800BD4680BD80B485B000AF78600023FB6084
:10468800134B1B68DB08134AA2FB03231A0A1346C1
:104698009B001344FB60FB68013BFB60FB68002B3D
:1046A80007D17B681B6C43F020027B681A640123E6
:1046B80008E07B681B681B6803F40073B3F5007F90
:1046C800E9D0002318461437BD4680BC704700BFA8
:1046D8006000002089B5F81480B483B000AF78601A
:1046E8007B681B685B6903F48063B3F5806F1BD13B
:1046F8007B681B686FF480625A617B6800221A63CA
:104708007B68202283F83D207B68002283F83E20C6
:104718007B681B6C43F004027B681A647B68002288
:1047280083F83C20012300E0002318460C37BD46DF
:1047380080BC704780B483B000AF78607B68DB6A68
:10474800B3F52A0F03D17B680122DA6207E07B68A0
:10475800DB6AB3F12A4F02D17B680822DA6200BF14
:104768000C37BD4680BC704780B586B000AF786016
:104778007B68002B01D101236CE27B681B6803F086
:104788000103002B00F08780924B5B6803F00C0359
:10479800042B0CD08F4B5B6803F00C03082B12D151
:1047A8008C4B5B6803F48033B3F5803F0BD1894BA6
:1047B8001B6803F40033002B6CD07B685B68002B0C
:1047C80068D1012346E27B685B68B3F5803F06D178
:1047D800804A804B1B6843F4803313602EE07B686B
:1047E8005B68002B0CD17B4A7A4B1B6823F480331F
:1047F8001360784A774B1B6823F4802313601DE00D
:104808007B685B68B3F5A02F0CD1724A714B1B68AB
:1048180043F4802313606F4A6E4B1B6843F4803364
:1048280013600BE06B4A6B4B1B6823F480331360F7
:10483800684A684B1B6823F4802313607B685B68B5
:10484800002B13D0FCF7E2FD386108E0FCF7DEFD31
:1048580002463B69D31A642B01D90323FAE15D4B65
:104868001B6803F40033002BF0D014E0FCF7CEFDF6
:10487800386108E0FCF7CAFD02463B69D31A642B8D
:1048880001D90323E6E1534B1B6803F40033002BE3
:10489800F0D100E000BF7B681B6803F00203002B27
:1048A80063D04C4B5B6803F00C03002B0BD0494BD7
:1048B8005B6803F00C03082B1CD1464B5B6803F4C0
:1048C8008033002B16D1434B1B6803F00203002BE7
:1048D80005D07B681B69012B01D00123BAE13D4952
:1048E8003C4B1B6823F0F8027B685B69DB001343D1
:1048F8000B603AE07B681B69002B20D0364B012205
:104908001A60FCF783FD386108E0FCF77FFD02467A
:104918003B69D31A022B01D903239BE12D4B1B685A
:1049280003F00203002BF0D02A492A4B1B6823F01E
:10493800F8027B685B69DB0013430B6015E0264BCC
:1049480000221A60FCF762FD386108E0FCF75EFDA2
:1049580002463B69D31A022B01D903237AE11D4B86
:104968001B6803F00203002BF0D17B681B6803F07F
:104978000803002B3AD07B689B69002B19D0174B92
:1049880001221A60FCF742FD386108E0FCF73EFDA1
:1049980002463B69D31A022B01D903235AE10D4B76
:1049A8005B6A03F00203002BF0D0012000F0DAFA72
:1049B8001CE00A4B00221A60FCF728FD38610FE062
:1049C800FCF724FD02463B69D31A022B08D90323BE
:1049D80040E100BF00100240000042428004424211
:1049E8009E4B5B6A03F00203002BE9D17B681B68CE
:1049F80003F00403002B00F0A6800023FB75974BFF
:104A0800DB6903F08053002B0DD1944A934BDB698B
:104A180043F08053D361914BDB6903F08053BB6053
:104A2800BB680123FB758E4B1B6803F48073002B56
:104A380018D18B4A8A4B1B6843F480731360FCF7C8
:104A4800E5FC386108E0FCF7E1FC02463B69D31A53
:104A5800642B01D90323FDE0814B1B6803F48073A9
:104A6800002BF0D07B68DB68012B06D17B4A7B4B9F
:104A78001B6A43F0010313622DE07B68DB68002B9F
:104A88000CD1764A754B1B6A23F001031362734AF3
:104A9800724B1B6A23F0040313621CE07B68DB681B
:104AA800052B0CD16D4A6D4B1B6A43F0040313624E
:104AB8006A4A6A4B1B6A43F0010313620BE0674AB8
:104AC800664B1B6A23F001031362644A634B1B6A3B
:104AD80023F0040313627B68DB68002B15D0FCF716
:104AE80095FC38610AE0FCF791FC02463B69D31A51
:104AF80041F28832934201D90323ABE0574B1B6A3A
:104B080003F00203002BEED014E0FCF77FFC3861C1
:104B18000AE0FCF77BFC02463B69D31A41F2883273
:104B2800934201D9032395E04C4B1B6A03F002031F
:104B3800002BEED1FB7D012B05D1484A474BDB69A1
:104B480023F08053D3617B68DB69002B00F0818000
:104B5800424B5B6803F00C03082B61D07B68DB6970
:104B6800022B46D13F4B00221A60FCF74FFC3861FC
:104B780008E0FCF74BFC02463B69D31A022B01D92B
:104B8800032367E0354B1B6803F00073002BF0D15B
:104B98007B681B6AB3F5803F08D130492F4B5B68AF
:104BA80023F400327B689B6813434B602B482B4BE4
:104BB8005B6823F474127B68196A7B685B6A0B4331
:104BC80013434360274B01221A60FCF71FFC38612E
:104BD80008E0FCF71BFC02463B69D31A022B01D9FB
:104BE800032337E01D4B1B6803F00073002BF0D044
:104BF8002FE01C4B00221A60FCF708FC386108E023
:104C0800FCF704FC02463B69D31A022B01D90323A3
:104C180020E0124B1B6803F00073002BF0D118E062
:104C28007B68DB69012B01D1012313E00B4B5B6827
:104C3800FB60FB6803F480327B681B6A9A4206D1EA
:104C4800FB6803F470127B685B6A9A4201D0012307
:104C580000E0002318461837BD4680BD001002400A
:104C6800007000406000424280B584B000AF7860B8
:104C780039607B68002B01D10123D0E06A4B1B68A7
:104C880003F007023B689A4210D26749664B1B68DB
:104C980023F007023B6813430B60634B1B6803F068
:104CA80007023B689A4201D00123B8E07B681B6881
:104CB80003F00203002B20D07B681B6803F0040379
:104CC800002B05D0594A594B5B6843F4E0635360A5
:104CD8007B681B6803F00803002B05D0534A534B2D
:104CE8005B6843F4605353605049504B5B6823F052
:104CF800F0027B689B6813434B607B681B6803F07A
:104D08000103002B40D07B685B68012B07D1474B20
:104D18001B6803F40033002B15D101237FE07B6867
:104D28005B68022B07D1414B1B6803F00073002B13
:104D380009D1012373E03D4B1B6803F00203002BEC
:104D480001D101236BE03949384B5B6823F003023A
:104D58007B685B6813434B60FCF758FBF8600AE01C
:104D6800FCF754FB0246FB68D31A41F2883293429F
:104D780001D9032353E02D4B5B6803F00C027B68D9
:104D88005B689B009A42EBD1274B1B6803F0070234
:104D98003B689A4210D92449234B1B6823F0070229
:104DA8003B6813430B60204B1B6803F007023B680A
:104DB8009A4201D0012332E07B681B6803F00403A8
:104DC800002B08D01949194B5B6823F4E0627B6813
:104DD800DB6813434B607B681B6803F00803002BF8
:104DE80009D01249114B5B6823F460527B681B6938
:104DF800DB0013434B6000F021F801460B4B5B6866
:104E08001B0903F00F030A4AD35C21FA03F3094A8A
:104E18001360094B1B681846FCF7B6FA00231846BE
:104E28001037BD4680BD00BF002002400010024080
:104E38007CBA0008600000200000002090B48AB00E
:104E480000AF2A4B3C1D0FCB84E80F00284B1B8872
:104E58003B800023FB610023BB6100237B620023AE
:104E68007B6100233B62234B5B68FB61FB6903F0BA
:104E78000C03042B02D0082B03D02DE01E4B3B6201
:104E88002DE0FB699B0C03F00F0307F12802134484
:104E980013F8243C7B61FB6903F48033002B13D0A7
:104EA800144B5B685B0C03F0010307F12802134401
:104EB80013F8283CBB617B690F4A02FB03F2BB690C
:104EC800B2FBF3F37B6204E07B690C4A02FB03F359
:104ED8007B627B6A3B6202E0074B3B6200BF3B6A36
:104EE80018462837BD4690BC704700BF60B9000817
:104EF80070B900080010024000127A0000093D0055
:104F080080B400AF024B1B681846BD4680BC704792
:104F18006000002080B500AFFFF7F2FF0146054BA7
:104F28005B681B0A03F00703034AD35C21FA03F307
:104F3800184680BD001002408CBA000880B500AF4A
:104F4800FFF7DEFF0146054B5B68DB0A03F007034A
:104F5800034AD35C21FA03F3184680BD00100240CF
:104F68008CBA000880B485B000AF78600A4B1B6823
:104F78000A4AA2FB03235B0A7A6802FB03F3FB607D
:104F880000BFFB685A1EFA60002BF9D100BF143726
:104F9800BD4680BC704700BF60000020D34D621042
:104FA80080B586B000AF786000233B610023FB60CA
:104FB8007B681B6803F00103002B7DD00023FB7581
:104FC8004F4BDB6903F08053002B0DD14C4A4C4BFF
:104FD800DB6943F08053D361494BDB6903F08053AD
:104FE800BB60BB680123FB75464B1B6803F48073E9
:104FF800002B18D1434A434B1B6843F4807313605A
:10500800FCF704FA386108E0FCF700FA02463B694D
:10501800D31A642B01D903236DE03A4B1B6803F4C0
:105028008073002BF0D0364B1B6A03F44073FB608F
:10503800FB68002B2ED07B685B6803F44072FB682A
:105048009A4227D02E4B1B6A23F44073FB602E4BE9
:1050580001221A602C4B00221A60294AFB6813624D
:10506800FB6803F00103002B14D0FCF7CFF938617B
:105078000AE0FCF7CBF902463B69D31A41F28832C1
:10508800934201D9032336E01D4B1B6A03F0020348
:10509800002BEED01A491A4B1B6A23F440727B6826
:1050A8005B6813430B62FB7D012B05D1144A144B3B
:1050B800DB6923F08053D3617B681B6803F002032C
:1050C800002B08D00E490E4B5B6823F440427B68E6
:1050D8009B6813434B607B681B6803F01003002B2D
:1050E80008D00749064B5B6823F480027B685B693C
:1050F80013434B60002318461837BD4680BD00BFD8
:1051080000100240007000404004424290B58DB04B
:1051180000AF78606B4B07F10C040FCB84E80F00ED
:10512800694B1B883B8100237B620023FB620023C1
:105138003B620023FB610023BB627B68013B0F2BB2
:1051480000F2B68001A252F823F000BF37520008DF
:105158009D520008B952000827520008B9520008A9
:10516800B9520008B95200082F520008B952000875
:10517800B9520008B9520008B9520008B9520008DB
:10518800B9520008B9520008955100084F4B5B68A6
:10519800FB614E4B1B6803F08073002B00F08A8084
:1051A800FB699B0C03F00F0307F13002134413F85B
:1051B800243C3B62FB6903F48033002B18D0434B3B
:1051C8005B685B0C03F0010307F13002134413F82A
:1051D800283C7B62FB6903F48033002B0DD03C4AEA
:1051E8007B6AB2FBF3F33A6A02FB03F3FB6204E067
:1051F8003B6A384A02FB03F3FB62344B5B6803F4F7
:105208008003B3F5800F02D1FB6ABB6252E0FB6AF0
:105218005B00314AA2FB03235B08BB624AE0FFF74D
:105228000DFEB86249E0FFF709FEB86245E0274B7A
:105238001B6AFB61FB6903F44073B3F5807F08D1F7
:10524800FB6903F00203002B03D04FF40043BB6259
:105258001FE0FB6903F44073B3F5007F09D11B4BD2
:105268005B6A03F00203002B03D049F64043BB629C
:105278000FE0FB6903F44073B3F5407F1CD1134B77
:105288001B6803F40033002B16D04FF22443BB6293
:1052980012E011E0FFF752FE02460C4B5B689B0BD5
:1052A80003F0030301335B00B2FBF3F3BB6204E0DA
:1052B80000BF02E000BF00E000BFBB6A18463437F9
:1052C800BD4690BD74B9000884B9000800100240BA
:1052D80000127A0000093D00ABAAAAAA80B582B0E4
:1052E80000AF78607B68002B01D1012375E07B68F3
:1052F8005B6A002B08D17B685B68B3F5827F09D0B5
:105308007B680022DA6105E07B6800221A617B680D
:1053180000225A617B6800229A627B6893F85130B8
:10532800DBB2002B06D17B68002283F85020786816
:1053380001F0D8FA7B68022283F851207B681B6849
:105348007A681268126822F040021A607B681B684B
:105358007A68526802F482717A68926802F40442A8
:1053680011437A68D26802F4006211437A681269BC
:1053780002F0020211437A68526902F001021143F5
:105388007A68926902F4007211437A68D26902F06D
:10539800380211437A68126A02F0800211437A686F
:1053A800926A02F400520A431A607B681B687A68A2
:1053B8009269120C02F004025A607B681B687A68D2
:1053C8001268D26922F40062DA617B6800225A65A9
:1053D8007B68012283F85120002318460837BD4610
:1053E80080BD80B582B000AF78607B68002B01D1AA
:1053F80001233FE07B6893F83930DBB2002B06D1FC
:105408007B68002283F83820786801F0ABFA7B6863
:10541800242283F839207B681B687A681268D2686E
:1054280022F40052DA60786800F05AFA7B681B6848
:105438007A681268126922F490421A617B681B68C4
:105448007A681268526922F02A025A617B681B68DE
:105458007A681268D26842F40052DA607B680022E7
:10546800DA637B68202283F839207B68202283F85E
:105478003A20002318460837BD4680BD80B588B05D
:1054880000AF78607B681B681B68FB617B681B68E2
:10549800DB68BB617B681B685B697B6100233B61E0
:1054A8000023FB60FB6903F00F033B613B69002BA2
:1054B8000DD1FB6903F02003002B08D0BB6903F072
:1054C8002003002B03D0786800F08AF9D1E03B690B
:1054D800002B00F0B0807B6903F00103002B05D19D
:1054E800BB6903F49073002B00F0A580FB6903F0FF
:1054F8000103002B0AD0BB6903F48073002B05D08D
:105508007B68DB6B43F001027B68DA63FB6903F0BD
:105518000403002B0AD07B6903F00103002B05D09C
:105528007B68DB6B43F002027B68DA63FB6903F09C
:105538000203002B0AD07B6903F00103002B05D07E
:105548007B68DB6B43F004027B68DA63FB6903F07A
:105558000803002B0FD0BB6903F02003002B04D1F4
:105568007B6903F00103002B05D07B68DB6B43F0FC
:1055780008027B68DA637B68DB6B002B78D0FB69F9
:1055880003F02003002B07D0BB6903F02003002B96
:1055980002D0786800F024F97B681B685B6903F027
:1055A8004003002B14BF01230023DBB2FB607B68A0
:1055B800DB6B03F00803002B02D1FB68002B31D012
:1055C800786800F076F87B681B685B6903F0400335
:1055D800002B23D07B681B687A681268526922F016
:1055E80040025A617B685B6B002B13D07B685B6B56
:1055F800214A5A637B685B6B1846FCF755FD0346E6
:10560800002B16D07B685B6B5B6B7A68526B10461D
:1056180098470EE0786800F043F80AE0786800F0F0
:105628003FF806E0786800F03BF87B680022DA6310
:105638001EE000BF1CE0FB6903F08003002B08D0CC
:10564800BB6903F08003002B03D0786800F062F890
:105658000FE0FB6903F04003002B0AD0BB6903F09D
:105668004003002B05D0786800F0A2F800BF00E0E6
:1056780000BF2037BD4680BDF556000880B483B012
:1056880000AF786000BF0C37BD4680BC704780B45F
:1056980083B000AF786000BF0C37BD4680BC704750
:1056A80080B483B000AF786000BF0C37BD4680BCC3
:1056B800704780B483B000AF78607B681B687A68F5
:1056C8001268D26822F49072DA607B681B687A6884
:1056D8001268526922F001025A617B68202283F81D
:1056E8003A2000BF0C37BD4680BC704780B584B0F7
:1056F80000AF78607B685B6AFB60FB680022DA8534
:10570800FB680022DA84F868FFF7CAFF00BF103789
:10571800BD4680BD80B485B000AF78607B6893F8E3
:105728003930DBB2212B3DD17B689B68B3F5805FB4
:1057380013D17B681B69002B0FD17B681B6AFB6048
:105748007B681B68FA681288C2F308025A607B6893
:105758001B6A9A1C7B681A6208E07B681A687B6877
:105768001B6A581C796808621B7853607B68DB8C5D
:105778009BB2013B9BB27A681946D184002B0FD1AA
:105788007B681B687A681268D26822F08002DA6047
:105798007B681B687A681268D26842F04002DA6057
:1057A800002300E0022318461437BD4680BC70472A
:1057B80080B582B000AF78607B681B687A68126831
:1057C800D26822F04002DA607B68202283F8392010
:1057D8007868FFF753FF002318460837BD4680BD99
:1057E80080B584B000AF78607B6893F83A30DBB25C
:1057F800222B70D17B689B68B3F5805F17D17B68DB
:105808001B69002B13D10023FB607B689B6ABB607C
:105818007B681B685B689BB2C3F308039AB2BB68DA
:105828001A807B689B6A9A1C7B689A6226E07B6870
:105838009B6AFB600023BB607B689B68B3F5805F55
:1058480007D07B689B68002B0AD17B681B69002BFB
:1058580006D17B681B685B68DAB2FB681A7008E0DF
:105868007B681B685B68DBB203F07F03DAB2FB6816
:105878001A707B689B6A5A1C7B689A627B68DB8D0E
:105888009BB2013B9BB27A681946D185002B20D187
:105898007B681B687A681268D26822F02002DA6096
:1058A8007B681B687A681268D26822F48072DA60B2
:1058B8007B681B687A681268526922F001025A6193
:1058C8007B68202283F83A207868FFF7E0FE0023FF
:1058D80002E0002300E0022318461037BD4680BDD1
:1058E80090B585B000AF78607B681B687A681268ED
:1058F800126922F440517A68D2680A431A617B68B7
:105908009A687B681B691A437B685B691343BB60B1
:105918007B681A687B681B68DB6823F4B05323F044
:105928000C03B9680B43D3607B681B687A681268FC
:10593800526922F440717A6892690A435A617B6815
:105948001B682C4A934203D1FFF7F8FAF86002E08B
:10595800FFF7E0FAF8607B681968FA6813469B005D
:1059680013449A001A447B685B689B00B2FBF3F30C
:10597800214AA2FB03235B091801FA6813469B001E
:1059880013449A001A447B685B689B00B2FBF3F2ED
:10599800194BA3FB02435B09642404FB03F3D31AEA
:1059A8001B013233144AA2FB03235B0903F0F00303
:1059B8001844FA6813469B0013449A001A447B68FB
:1059C8005B689B00B2FBF3F20B4BA3FB02435B0942
:1059D800642404FB03F3D31A1B013233064AA2FBE7
:1059E80003235B0903F00F0303448B6000BF1437E4
:1059F800BD4690BD003801401F85EB5190B583B07E
:105A080000AF4148FBF718FE64213F48FBF7C2FE90
:105A18003D48FBF7B9FF02463C4B1A603B4B1B68FD
:105A28009AB23B4B1A80394B1B689AB2384B5A8052
:105A380027E03548FBF700FE64213348FBF7AAFE50
:105A48003148FBF7A1FF0246304B1A60304B1B88E8
:105A58001A462E4B1B689A4204D92C4B1B689AB2E3
:105A68002B4B1A802A4B5B881A46284B1B689A4294
:105A780004D2264B1B689AB2254B5A80FB79013316
:105A8800FB71FB79FF2BD4D1214B5B881A46204B45
:105A98001B881344DA0F13445B109AB21D4B1A800B
:105AA8001B4B1B8819461C4801F03CFB184B5B88B4
:105AB80019461A4801F036FB164B1B88C3F57F635D
:105AC8000F331946164801F02DFB124B1B88C3F5FE
